{
  "abi": [
    {
      "inputs": [
        {
          "internalType": "uint256",
          "name": "_maxSecondsBeforePriceIsStale",
          "type": "uint256"
        }
      ],
      "stateMutability": "nonpayable",
      "type": "constructor"
    },
    {
      "inputs": [],
      "name": "BTC_ETH_PRICE_FEED",
      "outputs": [
        {
          "internalType": "contract AggregatorV3Interface",
          "name": "",
          "type": "address"
        }
      ],
      "stateMutability": "view",
      "type": "function"
    },
    {
      "inputs": [],
      "name": "ETH_USD_PRICE_FEED",
      "outputs": [
        {
          "internalType": "contract AggregatorV3Interface",
          "name": "",
          "type": "address"
        }
      ],
      "stateMutability": "view",
      "type": "function"
    },
    {
      "inputs": [
        {
          "internalType": "address",
          "name": "",
          "type": "address"
        }
      ],
      "name": "btcPriceFeeds",
      "outputs": [
        {
          "internalType": "contract AggregatorV3Interface",
          "name": "",
          "type": "address"
        }
      ],
      "stateMutability": "view",
      "type": "function"
    },
    {
      "inputs": [
        {
          "internalType": "address",
          "name": "",
          "type": "address"
        }
      ],
      "name": "ethPriceFeeds",
      "outputs": [
        {
          "internalType": "contract AggregatorV3Interface",
          "name": "",
          "type": "address"
        }
      ],
      "stateMutability": "view",
      "type": "function"
    },
    {
      "inputs": [
        {
          "internalType": "contract CToken",
          "name": "cToken",
          "type": "address"
        }
      ],
      "name": "getUnderlyingPrice",
      "outputs": [
        {
          "internalType": "uint256",
          "name": "",
          "type": "uint256"
        }
      ],
      "stateMutability": "view",
      "type": "function"
    },
    {
      "inputs": [
        {
          "internalType": "address",
          "name": "underlying",
          "type": "address"
        }
      ],
      "name": "hasPriceFeed",
      "outputs": [
        {
          "internalType": "bool",
          "name": "",
          "type": "bool"
        }
      ],
      "stateMutability": "view",
      "type": "function"
    },
    {
      "inputs": [],
      "name": "maxSecondsBeforePriceIsStale",
      "outputs": [
        {
          "internalType": "uint256",
          "name": "",
          "type": "uint256"
        }
      ],
      "stateMutability": "view",
      "type": "function"
    },
    {
      "inputs": [
        {
          "internalType": "address",
          "name": "underlying",
          "type": "address"
        }
      ],
      "name": "price",
      "outputs": [
        {
          "internalType": "uint256",
          "name": "",
          "type": "uint256"
        }
      ],
      "stateMutability": "view",
      "type": "function"
    },
    {
      "inputs": [
        {
          "internalType": "address",
          "name": "",
          "type": "address"
        }
      ],
      "name": "usdPriceFeeds",
      "outputs": [
        {
          "internalType": "contract AggregatorV3Interface",
          "name": "",
          "type": "address"
        }
      ],
      "stateMutability": "view",
      "type": "function"
    }
  ],
  "bytecode": {
    "object": "0x608060405234801561001057600080fd5b506040516126cf3803806126cf8339818101604052602081101561003357600080fd5b50516003557f922605635d8625baeee2632c4abd30ed3e656c608e4e1d527ac798b2e7bbaf8080546001600160a01b03199081167372afaecf99c9d9c8215ff44c77b94b99c28741e8179091557f7145bb02480b505fc02ccfdba07d3ba3a9d821606f0688263abedd0ac6e5bec580548216736df09e975c830ecae5bd4ed9d90f3a95a4f880121790557f652f71c42b843343e1ef371dbb9eee4ae200cef6c0330cc356d68047e9c79b628054821673492575fdd11a0fcf2c6c719867890a7648d526eb1790557f6aa415b64acb0a434cca4219caf83aa35a6e08e958efcfbc0a11e6938dcca50b80548216738f83670260f8f7708143b836a2a6f11ef0abac011790557f8dd1acf2f417f842f399a5c6c5a803e3017458a53801bad96df1fe1972a4537c805482167358921ac140522867bf50b9e009599da0ca4a23791790557f2bc93a8060526cefdf8802183664660d7d7310808def67df12894f0e5193b4338054821673c1438aa3823a6ba0c159cfa8d98df5a994ba120b1790557f60788a10714095b4b847dd17e28e2482eb05bcedcbe89ea8d5fa139281c227ff80548216730bdb051e10c9718d1c29efbad442e88d389582741790557f9d36796f595ad8c503b82568e7e967e06e60c0e85648af5d26070800c033c7f080548216730d16d4528239e9ee52fa531af613acdb23d88c941790557f2ada67348576a5f43965aeed43cfc775fb3796c746b8d7e063e9e31abe7756108054821673c546d2d06144f9dd42815b8ba46ee7b8fcafa4a29081179091557f98d1e320c17e2a1a87baab27194cf61fc6f4cbb6cda0040c2dbf58758d8effb78054831690911790557f72ecb6b277d69e65f266d635816977482f3bd43f38cd571ba98aab196b191eb28054821673cf61d1841b178fe82c8895fe60c2edda083144161790557ff0b998666205e50af945dcd5198861491334a6162cc24264d9a801634ee07ec88054821673deb288f737066589598e9214e782fa5a8ed689e89081179091557f0ad657e79cb9f74bdf6f33badc318d69537edcaf175eb59af2e123b577dd466580548316821790557f8237a75246863a956acc84e18f74a40be5a5e45c1449659b16fff884d97b2d2180548316821790557fc58542b7442a09818236d2c23eecf870f3688f99e43a40b094f6ed48f76581118054831690911790557f939f7cabc28bdbedc4485191b21a60d41b948f6b2be04fad8a9bba962c7a74b18054821673614715d2af89e6ec99a233818275142ce88d1cfd1790557f714d08b158d6cc294ffeb4a3b345613fb0e642c104a5bce757c5f7f16bd4df5480548216738f7c7181ed1a2ba41cfc3f5d064ef91b67daef661790557fc19dbee4376f33a2c7d0d8afb05074ae4879269d0731097362888a48b88cbe4e805482167375fbd83b4bd51dee765b2a01e8d3aa1b020f9d331790557f511cc89fca1810b4d2868146b87932d94ee0e38147e04dc2f8572df83cf520a880548216731b39ee86ec5979ba5c322b826b3ecb8c799916991790557f74b21504d6ce8d3085ff4d3c40f4f6f826f045fe400f691809753490c1113ccc80548216737b6230ef79d5e97c11049ab362c0b685facba0c21790557fa321655a2bbe4fb76e06e998714ab65c52c1c2c1d83195276a2c435589568d76805482167382597cfe6af8baad7c0d441aa82cbc3b517596071790557ff7b15f98e94b56adc7bc4251d8e5bab2a85df3c658d291f469be1863917931e98054821673ca696a9eb93b81adfe6435759a29ab4cf2991a961790557f70c3dba262fa5eaaf3e393830b86a1923f032bbcdc463b5d2b22ed5f11b1e68580548216738a12be339b0cd1829b91adc01977caa5e9ac121e1790557f5306b8fbe80b30a74098357ee8e26fad8dc069da9011cca5f0870a0a5982e5418054821673773616e4d11a78f511299002da57a0a94577f1f41790557f2dd12e72a092c6022dd4b244c76871f9fba900e3c17d078fa30123d4cc431b5f8054821673d010e899f7ab723ac93f825cdc5aa057669557c21790557f1bc36087bcda8c8f0a1d3644ff9e81045f37abda2f3e48c9950fe55b89d0df568054821673029849bbc0b1d93b85a8b6190e979fd38f5760e21790557f2a792ecbe4cc20859315764ffd1173cc3d655abe0eab051e1b91505d05664e5f805482167324d9ab51950f3d62e9144fdc2f3135daa6ce8d1b1790557f69385f4f59c73b47d354995d37e8afb2d12626a98f707577a862ca34c9b8dfab80548216732de7e4a9488488e0058b95854cc2f7955b35dc9b1790557f7fa58701f5444cd8686e8db74991cfac490ac6c67543759a064d4a1d9437208b8054821673f0985f7e2cabff22cecc5a71282a89582c382efe1790557f1937f4929bf506eeb2c6a1d0a2fcd058a6c656179f2f8b4280efa139cc62bcba805482167317d054ecac33d91f7340645341efb5de9009f1c11790557f65ddfc0b22efd48a70a9225c1497ac6013365784568b598beb41c24a618196638054821673af5e8d9cd9fc85725a83bf23c52f1c39a71588a61790557ff3da0919264f7c718053ecd775aaadf3e60482b8a48602c1a29f9e3fa1891d1c8054821673656c0544ef4c98a6a98491833a89204abb045d6b1790557fcf66ea24a3a22ace3478fe5474bcc1fe794b64f2f3e3e510121d34175d9fca748054821673e7015ccb7e5f788b8c1010fc22343473eaac37411790557f730d6fdf8f2d5e5e75a62ad49cc4d175b7750703aa72e452e1e22258c77079fb8054821673dc530d9457755926550b59e8eccdae76241815571790557ffde91a0e4ce347aee87f50e1828f560ac227f5a85b774d40a730df907420cbdd8054821673160ac928a16c93ed4895c2de6f81ecce9a7eb7b41790557fe9ac309054ae3ea057b8ba5ade5fbdb631fd2a69208b4c4996b5da5c0c28541a805482167382a44d92d6c329826dc557c5e1be6ebec5d5feb91790557fdda00a57bee26ed4ac93f73d0238caf2b0b80d455de521e247ae994efa80def5805482167324551a8fb2a7211a25a17b1481f043a8a8adc7f21790557fd85a4d964d4d582b84640f5fb5e87df4a5d5298bb387091004bd9260d56a89e38054821673daea8386611a157b08829ed4997a8a62b557014c1790557f8368c25c4b2f30d7b2ab019df22a73e277c773d0fb7cde331e90efc89d2692fb805482167398334b85de2a8b998ba844c5521e73d68ad69c001790557f7b66cee30b2b198fbf35e728c76f17d88c3a425bd48097e22eafaff9da2e7e8f80548216739cb2a01a7e64992d32a34db7ceea4c919c391f6a1790557f692c63a03bf35f688365fdce87bd4530629214d76f11021ca81cb251428807a9805482167357c9ab3e56ee4a83752c181f241120a3dbba06a11790557f629da0e8ff2229b61f23ea59f6fc9fae5385ec7d86836d69d66518b801a1a2b98054821673ba9b2a360eb8abdb677d6d7f27e12de11aa052ef1790557fc13b7ee270ec43e8a6443e3b8f180d8f4fca097dedaede03fcc04df7145c999a80548216733a08ebbab125224b7b6474384ee39fbb247d22001790557fdfcc185e406aad40b3880bc723dcc773f9b6e7bc42904ab3f9845c594921f49d80548216739b97304ea12efed0fad976fbecaad46016bf269e1790557f72d1ea1bd06e478789ce223c9d4541833ee2f7ebeef7a8270683f3d403f32f9480548216733147d7203354dc06d9fd350c7a2437bca92387a41790557f5048cdc78b2b28093fa136992d1ca5cef83e144d947de68225926a0ff2827a6c8054821673d4ce430c3b67b3e2f7026d86e7128588629e24551790557f915ea3178cf8d84ce8970365961a708ef05e98859d8d4717485c47bf3cbcb26480548216734cba1e1fdc738d0fe8db3ee07728e2bc4da676c61790557f3a366db8310f607ec90a3e157b2d9c96b54e5b9058a23c07ffef108dcac299bf8054821673875d60c44cfbc38baa4eb2ddb76a767deb91b97e1790557f6cd63715d5f0db03eec592ada4e78050279222b9583fb20a52ef8a37c8e911b9805482167379291a9d692df95334b1a0b3b4ae6bc606782f8c1790557f86533f34a757e46c0721fbd7d349a6f1936fb78c3f41968b01245132d7a80c658054821673050c048c9a0cd0e76f166e2539f87ef2accec58f1790557f891368e9fb55bce905a27799ff398f5706410e14205316f805cafda2a6c93be480548216738e0b7e6062272b5ef4524250bfff8e5bd34977571790557fb738e63d4f4906dfb172df67af9f36b70db9ec183d59b161eabe70a6ea8083e68054821673e572cef69f43c2e488b33924af04bdace19079cf1790557f690bb39a0a5e54120bf07b6463b8fcd7bea90578d8ae77d1e573a88ddc40bfec80548216733886ba987236181d98f2401c507fb8bea7871df21790557fef188c9425e10b9ff1f1fb69b77afe1d1874b5bbe31bfcba2584fae894ee14478054821673f817b69ea583caff291e287cae00ea329d22765c1790557f6da98f1d47bb0bc5549e1497f71ab684f8d693b19b458fbccae05e126d246e908054821673d6aa3d25116d8da79ea0246c4826eb951872e02e1790557fc6521c8ea4247e8beb499344e591b9401fb2807ff9997dd598fd9e56c73a264d8054821673986b5e1e1755e3c2440e960477f25201b0a8bbd41790557fa934b07068f5d95a11413ed6d08a4a1122dc4b8c14a6ab2d94f8b279dac630428054821673ee9f2375b4bdf6387aa8265dd4fb8f16512a1d461790557fbfbb6e0ba78daf468733c76bad8771bca2c4b9e50f4caf63c623fea7eda8d6028054821673a20623070413d42a5c01db2c8111640dd7a5a03a1790557fe2f5263ab0aff2d245fbc15bf86f3654aada3c07fe237aa7b35d5a4307de57698054821673e5dc0a609ab8bcf15d3f35cfaa1ff40f521173ea1790557fca39940d9fe8cb630469ab5caba946836b0cc51b0835f081f9fe5be60d1be4ca8054821673cebd2026d3c99f2a7ce028acf372c154ab4638a91790557f828ac2cfae8391df6fe4c86c1beb4a85a14c88f651908f41682259723170b5dc80548216737c5d4f8345e66f68099581db340cd65b078c41f41790557f1ce7425dcaab438b3aa06773f467c327bc5dafb088bd4b5574d752d6ef71f7d78054821673aab2f6b45b28e962b3acd1ee4fc88aeddf5577561790557fd3bdcf34226f9e810a1afecc8561c82ca9d9fd3955869ad47d9842f2dba8fa1e80548216732da4983a622a8498bb1a21fae9d8f6c6649399621790557fc16ce42b99dfd9b3e8f651b2f0b0ba7f21a54924ccfc1edbab49a269b7c4e4358054821673ae48c91df1fe419994ffda27da09d5ac69c30f551790557f228b035097642596abbc6f7f0758ba63a695d310ef53868d044ec2dc14fe61e38054821673231e764b44b2c1b7ca171fa8021a24ed520cde101790557fcfaddbd6ace3a979cf8d823997c93cc8a906b3474c7c04f7ead4ed4386dc3402805482167377f9710e7d0a19669a13c055f62cd80d313df0221790557ff84f2148991de777f629d59c7b1bf4c1e645096d98447d3406dc8a49e573c9128054821673449d117117838ffa61263b61da6301aa2a88b13a1790557f363d907798d05e664f1ad8bea95d518f44f828b18fee97195d3a12419b4d99968054821673fb0cadfea136e9e343cfb55b863a6df8348ab9121790557f1d5dd85bf54141e1e9825d67c3e9d9099cd3f284f85b90ce8fdb48fbe7587fa080548216731c07afb8e2b827c5a4739c6d59ae3a5035f287341790557f045c4c1a1887c6351dd9b50a806c6f3b969a704c2a71296883f55e466a2911dc805482167310a43289895eaff840e8d45995bba89f9115ecee1790557f29fdff8d3c2f67b2e13270227e40ac2535955bc3d63b7251c804d64b03e714348054821673aea2808407b7319a31a383b6f8b60f04bca23ce21790557fdf8318910f030d17d9af780fe90952ef38366f74eda98a29c961fc58d2506d6d8054821673b49f677943bc038e9857d61e7d053caa2c1734c11790557fdf99644981f13d8b18357d5d983b2f719203481d0d4a1c649a4b2d67d7e456b3805482167380070f7151bddbbb1361937ad4839317af99ae6c1790557fa134e427ef6529de95c7765b9831befbe26d2405ec3c4e872f967e2dfdeb2b1980548216735c0ab2d9b5a7ed9f470386e82bb36a3613cdd4b51790557f10db6a6613161f0e0a549f1f0c4bad6fd3d4dca1a45778499973aa27ae242c258054821673d0935838935349401c73a06fcde9d63f719e84e51790557ff03828b358f7faf17cd412f0c681ddd3c48f493565d84f6640a42fb86eb389a580548216736af09df7563c363b5763b9102712ebed3b9e859b1790557f422f9fa51c3ebf73c3fd74a817bc14bebb8d41805604ee0e2943143a024fcc5380548216737bac85a8a13a4bcd8abb3eb7d6b4d632c5a576761790557fce4c145f89f04763ecd4949aa72a46f7b1cf90c8e8cfea822705f79653b30bd58054821673d75aaae4af0c398ca13e2667be57af2cca8b5de61790557f7a08f1a05d6f24183b50d93ad9678cd6a18b49fd99d86f4b3f052a07b2c5938d8054821673fb0cfd6c19e25db4a08d8a204a387cea48cc138f1790557f5be6a1eae107afa7bddcea28ecc6a0b9200d088fac46ebde1b0899da28675fd9805482167326929b85fe284eeab939831002e1928183a10fb11790557f67aa7916c724f9f4889561f854c87d81b72d222616ad75f627be8b9da1bd3e7f8054821673acd0d1a29759cc01e8d925371b72cb2b5610ea251790557f1e8be566fcb0087c849bfa725bf2f34a4a7d61340491f533e4d911ecdcb0c72080548216731cedaab50936881b3e449e47e40a2cdaf5576a4a1790557fded36a01f3cd1f3dfbc4133230ddd9496f6aed7b580122c52fead359496a27c08054821673fac81ea9dd29d8e9b212acd6edbeb6de38cb43af1790557f5fc8b5a5372582c92ca1f5fc34b2fc67ecab129876bc197e421abf3ae3b194248054821673379589227b15f1a12195d3f2d90bbc9f31f952351790557f73d276fb9ee560332ea673c295519551375beccedfa7958021f64ecec0704a1a8054821673214ed9da11d2fbe465a6fc601a91e62ebec1a0d61790557f7aed1cbd1e9f97c301a09e560743c612867d0c3c140b9154207868811d8d02a48054821673fa66458cce7dd15d8650015c4fce4d278271618f1790557f2f2e13da20646f0b6f1b541c9f8163d18fa60c60eb923a097bb66e5419e01a328054821673ced2660c6dd1ffd856a5a82c67f3482d88c50b121790557fbac4733c84e9b7c5f58930c8b72ed3a84e28397c77f4d2a0ea79414e9dc1768d80548216735239a625deb44bf3eeac2cd5366ba24b8e9db63f1790557f4caf056ab4b9e3eea26c6d6d0e54b16f1d0982867848072f0cd1369efbfea7928054821673283d433435cfcabf00263beef6a362b7cc5ed9f21790557f9d30438784fca7535cf1019a1c35e8440741f3b7114721a1363f20893e998f378054821673a8e875f94138b0c5b51d1e1d5de35bbddd28ea8717905560026020527f7cbd64aab4b04ae4829b2aa2d6141aed77c1ac938af266e79812be8c48d67c9e8054821673418a6c98cd5b8275955f08f0b8c1c6838c8b168517905573f970b8e36e23f7fc3fd752eea86f8be8d83375a66000527f7907f4cd94db47062093d965fccb17a1a5b0ea0aadfc6b16658c8c50ac50163a805490911673ea0b3dca635f4a4e77d9654c5c18836ee771566e1790556110bb806116146000396000f3fe608060405234801561001057600080fd5b50600436106100a35760003560e01c8063b0f0abe911610076578063e073a2411161005b578063e073a241146101d3578063f0e0626f146101db578063fc57d4df1461020e576100a3565b8063b0f0abe9146101c3578063cf0b0613146101cb576100a3565b80630b7983a2146100a85780631c5ed620146100ef57806336bfdf721461014b578063aea910781461017e575b600080fd5b6100db600480360360208110156100be57600080fd5b503573ffffffffffffffffffffffffffffffffffffffff16610241565b604080519115158252519081900360200190f35b6101226004803603602081101561010557600080fd5b503573ffffffffffffffffffffffffffffffffffffffff166102d7565b6040805173ffffffffffffffffffffffffffffffffffffffff9092168252519081900360200190f35b6101226004803603602081101561016157600080fd5b503573ffffffffffffffffffffffffffffffffffffffff166102ff565b6101b16004803603602081101561019457600080fd5b503573ffffffffffffffffffffffffffffffffffffffff16610327565b60408051918252519081900360200190f35b610122610332565b61012261034a565b6101b1610362565b610122600480360360208110156101f157600080fd5b503573ffffffffffffffffffffffffffffffffffffffff16610368565b6101b16004803603602081101561022457600080fd5b503573ffffffffffffffffffffffffffffffffffffffff16610390565b73ffffffffffffffffffffffffffffffffffffffff81811660009081526020819052604081205490911615158061029e575073ffffffffffffffffffffffffffffffffffffffff8281166000908152600160205260409020541615155b806102cf575073ffffffffffffffffffffffffffffffffffffffff8281166000908152600260205260409020541615155b90505b919050565b60006020819052908152604090205473ffffffffffffffffffffffffffffffffffffffff1681565b60026020526000908152604090205473ffffffffffffffffffffffffffffffffffffffff1681565b60006102cf8261056b565b735f4ec3df9cbd43714fe2740f5e3616155c5b841981565b73deb288f737066589598e9214e782fa5a8ed689e881565b60035481565b60016020526000908152604090205473ffffffffffffffffffffffffffffffffffffffff1681565b60008173ffffffffffffffffffffffffffffffffffffffff1663ac784ddc6040518163ffffffff1660e01b815260040160206040518083038186803b1580156103d857600080fd5b505afa1580156103ec573d6000803e3d6000fd5b505050506040513d602081101561040257600080fd5b5051156104185750670de0b6b3a76400006102d2565b60008273ffffffffffffffffffffffffffffffffffffffff16636f307dc36040518163ffffffff1660e01b815260040160206040518083038186803b15801561046057600080fd5b505afa158015610474573d6000803e3d6000fd5b505050506040513d602081101561048a57600080fd5b5051905060006104998261056b565b905060008273ffffffffffffffffffffffffffffffffffffffff1663313ce5676040518163ffffffff1660e01b815260040160206040518083038186803b1580156104e357600080fd5b505afa1580156104f7573d6000803e3d6000fd5b505050506040513d602081101561050d57600080fd5b505160ff16905060128111156105515761054c827fffffffffffffffffffffffffffffffffffffffffffffffffffffffffffffffee8301600a0a610e7e565b610562565b610562826012839003600a0a610f01565b95945050505050565b600073c02aaa39b223fe8d0a0e5c4f27ead9083c756cc273ffffffffffffffffffffffffffffffffffffffff831614156105ae5750670de0b6b3a76400006102d2565b73ffffffffffffffffffffffffffffffffffffffff82811660009081526020819052604090205416156107d45773ffffffffffffffffffffffffffffffffffffffff8083166000908152602081905260408082205481517ffeaf968c00000000000000000000000000000000000000000000000000000000815291519293849391169163feaf968c9160048083019260a0929190829003018186803b15801561065657600080fd5b505afa15801561066a573d6000803e3d6000fd5b505050506040513d60a081101561068057600080fd5b5060208101516060909101516003549193509150156106f65760035481014211156106f6576040517f08c379a0000000000000000000000000000000000000000000000000000000008152600401808060200182810382526023815260200180610f9d6023913960400191505060405180910390fd5b60008212156107065760006107cb565b73ffffffffffffffffffffffffffffffffffffffff808516600090815260208181526040918290205482517f313ce56700000000000000000000000000000000000000000000000000000000815292516107cb94919091169263313ce567926004808301939192829003018186803b15801561078157600080fd5b505afa158015610795573d6000803e3d6000fd5b505050506040513d60208110156107ab57600080fd5b505160ff16600a0a6107c584670de0b6b3a7640000610f01565b90610e7e565b925050506102d2565b73ffffffffffffffffffffffffffffffffffffffff8281166000908152600160205260409020541615610b0d57600080735f4ec3df9cbd43714fe2740f5e3616155c5b841973ffffffffffffffffffffffffffffffffffffffff1663feaf968c6040518163ffffffff1660e01b815260040160a06040518083038186803b15801561085e57600080fd5b505afa158015610872573d6000803e3d6000fd5b505050506040513d60a081101561088857600080fd5b5060208101516060909101516003549193509150156108fe5760035481014211156108fe576040517f08c379a0000000000000000000000000000000000000000000000000000000008152600401808060200182810382526021815260200180610fe36021913960400191505060405180910390fd5b60008213610911576000925050506102d2565b73ffffffffffffffffffffffffffffffffffffffff8085166000908152600160205260408082205481517ffeaf968c00000000000000000000000000000000000000000000000000000000815291519293169163feaf968c9160048082019260a092909190829003018186803b15801561098a57600080fd5b505afa15801561099e573d6000803e3d6000fd5b505050506040513d60a08110156109b457600080fd5b50602081015160609091015160035490935090915015610a2b576003548201421115610a2b576040517f08c379a0000000000000000000000000000000000000000000000000000000008152600401808060200182810382526023815260200180610fc06023913960400191505060405180910390fd5b6000811215610a3b576000610b03565b73ffffffffffffffffffffffffffffffffffffffff8086166000908152600160209081526040918290205482517f313ce5670000000000000000000000000000000000000000000000000000000081529251610b039488946107c594939091169263313ce56792600480840193829003018186803b158015610abc57600080fd5b505afa158015610ad0573d6000803e3d6000fd5b505050506040513d6020811015610ae657600080fd5b505160ff16600a0a6107c5856a52b7d2dcc80cd2e4000000610f01565b93505050506102d2565b73ffffffffffffffffffffffffffffffffffffffff8281166000908152600260205260409020541615610e2d5760008073deb288f737066589598e9214e782fa5a8ed689e873ffffffffffffffffffffffffffffffffffffffff1663feaf968c6040518163ffffffff1660e01b815260040160a06040518083038186803b158015610b9757600080fd5b505afa158015610bab573d6000803e3d6000fd5b505050506040513d60a0811015610bc157600080fd5b506020810151606090910151600354919350915015610c37576003548101421115610c37576040517f08c379a0000000000000000000000000000000000000000000000000000000008152600401808060200182810382526021815260200180610f7c6021913960400191505060405180910390fd5b60008213610c4a576000925050506102d2565b73ffffffffffffffffffffffffffffffffffffffff8085166000908152600260205260408082205481517ffeaf968c00000000000000000000000000000000000000000000000000000000815291519293169163feaf968c9160048082019260a092909190829003018186803b158015610cc357600080fd5b505afa158015610cd7573d6000803e3d6000fd5b505050506040513d60a0811015610ced57600080fd5b50602081015160609091015160035490935090915015610d64576003548201421115610d64576040517f08c379a00000000000000000000000000000000000000000000000000000000081526004018080602001828103825260238152602001806110636023913960400191505060405180910390fd5b6000811215610d74576000610b03565b73ffffffffffffffffffffffffffffffffffffffff8086166000908152600260209081526040918290205482517f313ce5670000000000000000000000000000000000000000000000000000000081529251610b0394919091169263313ce567926004808301939192829003018186803b158015610df157600080fd5b505afa158015610e05573d6000803e3d6000fd5b505050506040513d6020811015610e1b57600080fd5b505160ff16600a0a6107c58386610f01565b6040517f08c379a000000000000000000000000000000000000000000000000000000000815260040180806020018281038252603e815260200180611004603e913960400191505060405180910390fd5b6000808211610eee57604080517f08c379a000000000000000000000000000000000000000000000000000000000815260206004820152601a60248201527f536166654d6174683a206469766973696f6e206279207a65726f000000000000604482015290519081900360640190fd5b818381610ef757fe5b0490505b92915050565b600082610f1057506000610efb565b82820282848281610f1d57fe5b0414610f74576040517f08c379a00000000000000000000000000000000000000000000000000000000081526004018080602001828103825260218152602001806110426021913960400191505060405180910390fd5b939250505056fe4254432f45544820436861696e6c696e6b207072696365206973207374616c652e546f6b656e2f45544820436861696e6c696e6b207072696365206973207374616c652e546f6b656e2f55534420436861696e6c696e6b207072696365206973207374616c652e4554482f55534420436861696e6c696e6b207072696365206973207374616c652e4e6f20436861696e6c696e6b207072696365206665656420666f756e6420666f72207468697320756e6465726c79696e6720455243323020746f6b656e2e536166654d6174683a206d756c7469706c69636174696f6e206f766572666c6f77546f6b656e2f42544320436861696e6c696e6b207072696365206973207374616c652ea2646970667358221220f4003cc2a7be642a9f8630a3740b3fbb1686f734eff36d85f92d6b353880c9f064736f6c634300060c0033",
    "linkReferences": {}
  }
}