{
  "abi": [
    {
      "inputs": [
        {
          "internalType": "uint256",
          "name": "jumpMultiplierPerYear",
          "type": "uint256"
        },
        {
          "internalType": "uint256",
          "name": "kink_",
          "type": "uint256"
        },
        {
          "internalType": "address",
          "name": "pot_",
          "type": "address"
        },
        {
          "internalType": "address",
          "name": "jug_",
          "type": "address"
        }
      ],
      "payable": false,
      "stateMutability": "nonpayable",
      "type": "constructor"
    },
    {
      "anonymous": false,
      "inputs": [
        {
          "indexed": false,
          "internalType": "uint256",
          "name": "baseRatePerBlock",
          "type": "uint256"
        },
        {
          "indexed": false,
          "internalType": "uint256",
          "name": "multiplierPerBlock",
          "type": "uint256"
        },
        {
          "indexed": false,
          "internalType": "uint256",
          "name": "jumpMultiplierPerBlock",
          "type": "uint256"
        },
        {
          "indexed": false,
          "internalType": "uint256",
          "name": "kink",
          "type": "uint256"
        }
      ],
      "name": "NewInterestParams",
      "type": "event"
    },
    {
      "constant": true,
      "inputs": [],
      "name": "assumedOneMinusReserveFactorMantissa",
      "outputs": [
        {
          "internalType": "uint256",
          "name": "",
          "type": "uint256"
        }
      ],
      "payable": false,
      "stateMutability": "view",
      "type": "function"
    },
    {
      "constant": true,
      "inputs": [],
      "name": "baseRatePerBlock",
      "outputs": [
        {
          "internalType": "uint256",
          "name": "",
          "type": "uint256"
        }
      ],
      "payable": false,
      "stateMutability": "view",
      "type": "function"
    },
    {
      "constant": true,
      "inputs": [],
      "name": "blocksPerYear",
      "outputs": [
        {
          "internalType": "uint256",
          "name": "",
          "type": "uint256"
        }
      ],
      "payable": false,
      "stateMutability": "view",
      "type": "function"
    },
    {
      "constant": true,
      "inputs": [],
      "name": "dsrPerBlock",
      "outputs": [
        {
          "internalType": "uint256",
          "name": "",
          "type": "uint256"
        }
      ],
      "payable": false,
      "stateMutability": "view",
      "type": "function"
    },
    {
      "constant": true,
      "inputs": [],
      "name": "gapPerBlock",
      "outputs": [
        {
          "internalType": "uint256",
          "name": "",
          "type": "uint256"
        }
      ],
      "payable": false,
      "stateMutability": "view",
      "type": "function"
    },
    {
      "constant": true,
      "inputs": [
        {
          "internalType": "uint256",
          "name": "cash",
          "type": "uint256"
        },
        {
          "internalType": "uint256",
          "name": "borrows",
          "type": "uint256"
        },
        {
          "internalType": "uint256",
          "name": "reserves",
          "type": "uint256"
        }
      ],
      "name": "getBorrowRate",
      "outputs": [
        {
          "internalType": "uint256",
          "name": "",
          "type": "uint256"
        }
      ],
      "payable": false,
      "stateMutability": "view",
      "type": "function"
    },
    {
      "constant": true,
      "inputs": [
        {
          "internalType": "uint256",
          "name": "cash",
          "type": "uint256"
        },
        {
          "internalType": "uint256",
          "name": "borrows",
          "type": "uint256"
        },
        {
          "internalType": "uint256",
          "name": "reserves",
          "type": "uint256"
        },
        {
          "internalType": "uint256",
          "name": "reserveFactorMantissa",
          "type": "uint256"
        }
      ],
      "name": "getSupplyRate",
      "outputs": [
        {
          "internalType": "uint256",
          "name": "",
          "type": "uint256"
        }
      ],
      "payable": false,
      "stateMutability": "view",
      "type": "function"
    },
    {
      "constant": true,
      "inputs": [],
      "name": "isInterestRateModel",
      "outputs": [
        {
          "internalType": "bool",
          "name": "",
          "type": "bool"
        }
      ],
      "payable": false,
      "stateMutability": "view",
      "type": "function"
    },
    {
      "constant": true,
      "inputs": [],
      "name": "jumpMultiplierPerBlock",
      "outputs": [
        {
          "internalType": "uint256",
          "name": "",
          "type": "uint256"
        }
      ],
      "payable": false,
      "stateMutability": "view",
      "type": "function"
    },
    {
      "constant": true,
      "inputs": [],
      "name": "kink",
      "outputs": [
        {
          "internalType": "uint256",
          "name": "",
          "type": "uint256"
        }
      ],
      "payable": false,
      "stateMutability": "view",
      "type": "function"
    },
    {
      "constant": true,
      "inputs": [],
      "name": "multiplierPerBlock",
      "outputs": [
        {
          "internalType": "uint256",
          "name": "",
          "type": "uint256"
        }
      ],
      "payable": false,
      "stateMutability": "view",
      "type": "function"
    },
    {
      "constant": false,
      "inputs": [],
      "name": "poke",
      "outputs": [],
      "payable": false,
      "stateMutability": "nonpayable",
      "type": "function"
    },
    {
      "constant": true,
      "inputs": [
        {
          "internalType": "uint256",
          "name": "cash",
          "type": "uint256"
        },
        {
          "internalType": "uint256",
          "name": "borrows",
          "type": "uint256"
        },
        {
          "internalType": "uint256",
          "name": "reserves",
          "type": "uint256"
        }
      ],
      "name": "utilizationRate",
      "outputs": [
        {
          "internalType": "uint256",
          "name": "",
          "type": "uint256"
        }
      ],
      "payable": false,
      "stateMutability": "pure",
      "type": "function"
    }
  ],
  "bytecode": {
    "object": "0x60806040523480156200001157600080fd5b50604051620011c7380380620011c7833981810160405260808110156200003757600080fd5b5080516020808301516040840151606090940151929390929091600090819086908690620000759084906224339490620007906200015c821b17901c565b6001556200009383622433946200015c602090811b6200079017901c565b600055620000b182622433946200015c602090811b6200079017901c565b60028190556003829055600154600054604080519283526020830191909152818101929092526060810183905290517f6960ab234c7ef4b0c9197100f5393cfcde7c453ac910a27bd2000aa1dd4c068d9181900360800190a15050600480546001600160a01b038087166001600160a01b0319928316179092556005805492861692909116919091179055506200015290506001600160e01b03620001af16565b5050505062000721565b6000620001a683836040518060400160405280601a81526020017f536166654d6174683a206469766973696f6e206279207a65726f0000000000008152506200046360201b60201c565b90505b92915050565b60055460408051636cb1c69b60e11b8152644554482d4160d81b600482015281516000936001600160a01b03169263d9638d369260248082019391829003018186803b158015620001ff57600080fd5b505afa15801562000214573d6000803e3d6000fd5b505050506040513d60408110156200022b57600080fd5b505160055460408051635001f3b560e01b815290519293506000926200032a92600f9262000302926b033b2e3c9fd0803ce8000000926200031692670de0b6b3a76400009286928692620002ee926001600160a01b0390921691635001f3b591600480820192602092909190829003018186803b158015620002ac57600080fd5b505afa158015620002c1573d6000803e3d6000fd5b505050506040513d6020811015620002d857600080fd5b50518b906200050a602090811b620007d217901c565b6200056560201b620008461790919060201c565b620005af60201b620007141790919060201c565b6200015c60201b620007901790919060201c565b905062000359670d2f13f7789f000062000316670de0b6b3a7640000620003026001600160e01b036200060d16565b6001819055811115620003cc57620003c360035462000316670de0b6b3a7640000620003026224339466470de4df820000816200039257fe5b04620003af600154886200056560201b620008461790919060201c565b6200050a60201b620007d21790919060201c565b6000556200040d565b6200040960035462000316670de0b6b3a76400006224339466470de4df82000081620003f457fe5b04620005af60201b620007141790919060201c565b6000555b600154600054600254600354604080519485526020850193909352838301919091526060830152517f6960ab234c7ef4b0c9197100f5393cfcde7c453ac910a27bd2000aa1dd4c068d9181900360800190a15050565b60008183620004f35760405162461bcd60e51b81526004018080602001828103825283818151815260200191508051906020019080838360005b83811015620004b75781810151838201526020016200049d565b50505050905090810190601f168015620004e55780820380516001836020036101000a031916815260200191505b509250505060405180910390fd5b5060008385816200050057fe5b0495945050505050565b600082820183811015620001a6576040805162461bcd60e51b815260206004820152601b60248201527f536166654d6174683a206164646974696f6e206f766572666c6f770000000000604482015290519081900360640190fd5b6000620001a683836040518060400160405280601f81526020017f536166654d6174683a207375627472616374696f6e20756e646572666c6f7700815250620006c460201b60201c565b600082620005c057506000620001a9565b82820282848281620005ce57fe5b0414620001a65760405162461bcd60e51b8152600401808060200182810382526021815260200180620011a66021913960400191505060405180910390fd5b6000620006bf600f62000302633b9aca00620003166b033b2e3c9fd0803ce8000000600460009054906101000a90046001600160a01b03166001600160a01b031663487bf0826040518163ffffffff1660e01b815260040160206040518083038186803b1580156200067e57600080fd5b505afa15801562000693573d6000803e3d6000fd5b505050506040513d6020811015620006aa57600080fd5b50519062000565602090811b6200084617901c565b905090565b60008184841115620007195760405162461bcd60e51b8152602060048201818152835160248401528351909283926044909101919085019080838360008315620004b75781810151838201526020016200049d565b505050900390565b610a7580620007316000396000f3fe608060405234801561001057600080fd5b50600436106100df5760003560e01c806396456c5c1161008c578063b9f9850a11610066578063b9f9850a146101bd578063f14039de146101c5578063f52d21f3146101cd578063fd2da339146101d5576100df565b806396456c5c1461017e578063a385fb9614610186578063b81688161461018e576100df565b80636dac7cd5116100bd5780636dac7cd5146101455780636e71e2d81461014d5780638726bb8914610176576100df565b806315f24053146100e4578063181783581461011f5780632191f92a14610129575b600080fd5b61010d600480360360608110156100fa57600080fd5b50803590602081013590604001356101dd565b60408051918252519081900360200190f35b6101276102b5565b005b61013161055f565b604080519115158252519081900360200190f35b61010d610564565b61010d6004803603606081101561016357600080fd5b5080359060208101359060400135610570565b61010d6105b6565b61010d6105bc565b61010d610680565b61010d600480360360808110156101a457600080fd5b5080359060208101359060408101359060600135610687565b61010d6106f9565b61010d6106ff565b61010d610705565b61010d61070e565b6000806101eb858585610570565b9050600354811161023d57610235600154610229670de0b6b3a764000061021d6000548661071490919063ffffffff16565b9063ffffffff61079016565b9063ffffffff6107d216565b9150506102ae565b6000610268600154610229670de0b6b3a764000061021d60005460035461071490919063ffffffff16565b905060006102816003548461084690919063ffffffff16565b90506102a882610229670de0b6b3a764000061021d6002548661071490919063ffffffff16565b93505050505b9392505050565b600554604080517fd9638d360000000000000000000000000000000000000000000000000000000081527f4554482d410000000000000000000000000000000000000000000000000000006004820152815160009373ffffffffffffffffffffffffffffffffffffffff169263d9638d369260248082019391829003018186803b15801561034257600080fd5b505afa158015610356573d6000803e3d6000fd5b505050506040513d604081101561036c57600080fd5b5051600554604080517f5001f3b5000000000000000000000000000000000000000000000000000000008152905192935060009261045f92600f92610453926b033b2e3c9fd0803ce80000009261021d92670de0b6b3a764000092869286926104479273ffffffffffffffffffffffffffffffffffffffff90921691635001f3b591600480820192602092909190829003018186803b15801561040e57600080fd5b505afa158015610422573d6000803e3d6000fd5b505050506040513d602081101561043857600080fd5b50518b9063ffffffff6107d216565b9063ffffffff61084616565b9063ffffffff61071416565b9050610481670d2f13f7789f000061021d670de0b6b3a76400006104536105bc565b60018190558111156104d3576104cb60035461021d670de0b6b3a76400006104536224339466470de4df820000816104b557fe5b046102296001548861084690919063ffffffff16565b600055610509565b61050560035461021d670de0b6b3a76400006224339466470de4df820000816104f857fe5b049063ffffffff61071416565b6000555b600154600054600254600354604080519485526020850193909352838301919091526060830152517f6960ab234c7ef4b0c9197100f5393cfcde7c453ac910a27bd2000aa1dd4c068d9181900360800190a15050565b600181565b670d2f13f7789f000081565b60008261057f575060006102ae565b6105ae61059683610447878763ffffffff6107d216565b61021d85670de0b6b3a764000063ffffffff61071416565b949350505050565b60005481565b600061067b600f610453633b9aca0061021d6b033b2e3c9fd0803ce8000000600460009054906101000a900473ffffffffffffffffffffffffffffffffffffffff1673ffffffffffffffffffffffffffffffffffffffff1663487bf0826040518163ffffffff1660e01b815260040160206040518083038186803b15801561064357600080fd5b505afa158015610657573d6000803e3d6000fd5b505050506040513d602081101561066d57600080fd5b50519063ffffffff61084616565b905090565b6224339481565b60008061069686868686610888565b905060006106ae85610447898963ffffffff6107d216565b9050806106bd575090506105ae565b60006106db8261021d6106ce6105bc565b8b9063ffffffff61071416565b90506106ed818463ffffffff6107d216565b98975050505050505050565b60025481565b60015481565b6401f676775e81565b60035481565b6000826107235750600061078a565b8282028284828161073057fe5b0414610787576040517f08c379a0000000000000000000000000000000000000000000000000000000008152600401808060200182810382526021815260200180610a206021913960400191505060405180910390fd5b90505b92915050565b600061078783836040518060400160405280601a81526020017f536166654d6174683a206469766973696f6e206279207a65726f0000000000008152506108ef565b60008282018381101561078757604080517f08c379a000000000000000000000000000000000000000000000000000000000815260206004820152601b60248201527f536166654d6174683a206164646974696f6e206f766572666c6f770000000000604482015290519081900360640190fd5b600061078783836040518060400160405280601f81526020017f536166654d6174683a207375627472616374696f6e20756e646572666c6f77008152506109ab565b6000806108a3670de0b6b3a76400008463ffffffff61084616565b905060006108b28787876101dd565b905060006108d2670de0b6b3a764000061021d848663ffffffff61071416565b90506106ed670de0b6b3a764000061021d836104538c8c8c610570565b60008183610995576040517f08c379a00000000000000000000000000000000000000000000000000000000081526004018080602001828103825283818151815260200191508051906020019080838360005b8381101561095a578181015183820152602001610942565b50505050905090810190601f1680156109875780820380516001836020036101000a031916815260200191505b509250505060405180910390fd5b5060008385816109a157fe5b0495945050505050565b60008184841115610a17576040517f08c379a000000000000000000000000000000000000000000000000000000000815260206004820181815283516024840152835190928392604490910191908501908083836000831561095a578181015183820152602001610942565b50505090039056fe536166654d6174683a206d756c7469706c69636174696f6e206f766572666c6f77a265627a7a72315820cb7c3af4e223c09cfb50b90e8d7b53159219832148283ea7b7d2c8795a4d858b64736f6c63430005110032536166654d6174683a206d756c7469706c69636174696f6e206f766572666c6f77",
    "linkReferences": {}
  }
}