{
  "abi": [
    {
      "inputs": [
        {
          "internalType": "uint256",
          "name": "baseRatePerYear",
          "type": "uint256"
        },
        {
          "internalType": "uint256",
          "name": "multiplierPerYear",
          "type": "uint256"
        },
        {
          "internalType": "uint256",
          "name": "jumpMultiplierPerYear",
          "type": "uint256"
        },
        {
          "internalType": "uint256",
          "name": "kink_",
          "type": "uint256"
        }
      ],
      "payable": false,
      "stateMutability": "nonpayable",
      "type": "constructor"
    },
    {
      "anonymous": false,
      "inputs": [
        {
          "indexed": false,
          "internalType": "uint256",
          "name": "baseRatePerBlock",
          "type": "uint256"
        },
        {
          "indexed": false,
          "internalType": "uint256",
          "name": "multiplierPerBlock",
          "type": "uint256"
        },
        {
          "indexed": false,
          "internalType": "uint256",
          "name": "jumpMultiplierPerBlock",
          "type": "uint256"
        },
        {
          "indexed": false,
          "internalType": "uint256",
          "name": "kink",
          "type": "uint256"
        }
      ],
      "name": "NewInterestParams",
      "type": "event"
    },
    {
      "constant": true,
      "inputs": [],
      "name": "baseRatePerBlock",
      "outputs": [
        {
          "internalType": "uint256",
          "name": "",
          "type": "uint256"
        }
      ],
      "payable": false,
      "stateMutability": "view",
      "type": "function"
    },
    {
      "constant": true,
      "inputs": [],
      "name": "blocksPerYear",
      "outputs": [
        {
          "internalType": "uint256",
          "name": "",
          "type": "uint256"
        }
      ],
      "payable": false,
      "stateMutability": "view",
      "type": "function"
    },
    {
      "constant": true,
      "inputs": [
        {
          "internalType": "uint256",
          "name": "cash",
          "type": "uint256"
        },
        {
          "internalType": "uint256",
          "name": "borrows",
          "type": "uint256"
        },
        {
          "internalType": "uint256",
          "name": "reserves",
          "type": "uint256"
        }
      ],
      "name": "getBorrowRate",
      "outputs": [
        {
          "internalType": "uint256",
          "name": "",
          "type": "uint256"
        }
      ],
      "payable": false,
      "stateMutability": "view",
      "type": "function"
    },
    {
      "constant": true,
      "inputs": [
        {
          "internalType": "uint256",
          "name": "cash",
          "type": "uint256"
        },
        {
          "internalType": "uint256",
          "name": "borrows",
          "type": "uint256"
        },
        {
          "internalType": "uint256",
          "name": "reserves",
          "type": "uint256"
        },
        {
          "internalType": "uint256",
          "name": "reserveFactorMantissa",
          "type": "uint256"
        }
      ],
      "name": "getSupplyRate",
      "outputs": [
        {
          "internalType": "uint256",
          "name": "",
          "type": "uint256"
        }
      ],
      "payable": false,
      "stateMutability": "view",
      "type": "function"
    },
    {
      "constant": true,
      "inputs": [],
      "name": "isInterestRateModel",
      "outputs": [
        {
          "internalType": "bool",
          "name": "",
          "type": "bool"
        }
      ],
      "payable": false,
      "stateMutability": "view",
      "type": "function"
    },
    {
      "constant": true,
      "inputs": [],
      "name": "jumpMultiplierPerBlock",
      "outputs": [
        {
          "internalType": "uint256",
          "name": "",
          "type": "uint256"
        }
      ],
      "payable": false,
      "stateMutability": "view",
      "type": "function"
    },
    {
      "constant": true,
      "inputs": [],
      "name": "kink",
      "outputs": [
        {
          "internalType": "uint256",
          "name": "",
          "type": "uint256"
        }
      ],
      "payable": false,
      "stateMutability": "view",
      "type": "function"
    },
    {
      "constant": true,
      "inputs": [],
      "name": "multiplierPerBlock",
      "outputs": [
        {
          "internalType": "uint256",
          "name": "",
          "type": "uint256"
        }
      ],
      "payable": false,
      "stateMutability": "view",
      "type": "function"
    },
    {
      "constant": true,
      "inputs": [
        {
          "internalType": "uint256",
          "name": "cash",
          "type": "uint256"
        },
        {
          "internalType": "uint256",
          "name": "borrows",
          "type": "uint256"
        },
        {
          "internalType": "uint256",
          "name": "reserves",
          "type": "uint256"
        }
      ],
      "name": "utilizationRate",
      "outputs": [
        {
          "internalType": "uint256",
          "name": "",
          "type": "uint256"
        }
      ],
      "payable": false,
      "stateMutability": "pure",
      "type": "function"
    }
  ],
  "bytecode": {
    "object": "0x608060405234801561001057600080fd5b506040516108433803806108438339818101604052608081101561003357600080fd5b508051602080830151604084015160609094015192939092909161006590859062243394906103c86100fd821b17901c565b60015561008083622433946100fd602090811b6103c817901c565b60005561009b82622433946100fd602090811b6103c817901c565b60028190556003829055600154600054604080519283526020830191909152818101929092526060810183905290517f6960ab234c7ef4b0c9197100f5393cfcde7c453ac910a27bd2000aa1dd4c068d9181900360800190a1505050506101ee565b600061014583836040518060400160405280601a81526020017f536166654d6174683a206469766973696f6e206279207a65726f00000000000081525061014c60201b60201c565b9392505050565b600081836101d85760405162461bcd60e51b81526004018080602001828103825283818151815260200191508051906020019080838360005b8381101561019d578181015183820152602001610185565b50505050905090810190601f1680156101ca5780820380516001836020036101000a031916815260200191505b509250505060405180910390fd5b5060008385816101e457fe5b0495945050505050565b610646806101fd6000396000f3fe608060405234801561001057600080fd5b50600436106100a35760003560e01c8063a385fb9611610076578063b9f9850a1161005b578063b9f9850a14610167578063f14039de1461016f578063fd2da33914610177576100a3565b8063a385fb9614610130578063b816881614610138576100a3565b806315f24053146100a85780632191f92a146100e35780636e71e2d8146100ff5780638726bb8914610128575b600080fd5b6100d1600480360360608110156100be57600080fd5b508035906020810135906040013561017f565b60408051918252519081900360200190f35b6100eb610257565b604080519115158252519081900360200190f35b6100d16004803603606081101561011557600080fd5b508035906020810135906040013561025c565b6100d16102ae565b6100d16102b4565b6100d16004803603608081101561014e57600080fd5b50803590602081013590604081013590606001356102bb565b6100d161033a565b6100d1610340565b6100d1610346565b60008061018d85858561025c565b905060035481116101df576101d76001546101cb670de0b6b3a76400006101bf6000548661034c90919063ffffffff16565b9063ffffffff6103c816565b9063ffffffff61040a16565b915050610250565b600061020a6001546101cb670de0b6b3a76400006101bf60005460035461034c90919063ffffffff16565b905060006102236003548461047e90919063ffffffff16565b905061024a826101cb670de0b6b3a76400006101bf6002548661034c90919063ffffffff16565b93505050505b9392505050565b600181565b60008261026b57506000610250565b6102a661028e83610282878763ffffffff61040a16565b9063ffffffff61047e16565b6101bf85670de0b6b3a764000063ffffffff61034c16565b949350505050565b60005481565b6224339481565b6000806102d6670de0b6b3a76400008463ffffffff61047e16565b905060006102e587878761017f565b90506000610305670de0b6b3a76400006101bf848663ffffffff61034c16565b905061032e670de0b6b3a76400006101bf836103228c8c8c61025c565b9063ffffffff61034c16565b98975050505050505050565b60025481565b60015481565b60035481565b60008261035b575060006103c2565b8282028284828161036857fe5b04146103bf576040517f08c379a00000000000000000000000000000000000000000000000000000000081526004018080602001828103825260218152602001806105f16021913960400191505060405180910390fd5b90505b92915050565b60006103bf83836040518060400160405280601a81526020017f536166654d6174683a206469766973696f6e206279207a65726f0000000000008152506104c0565b6000828201838110156103bf57604080517f08c379a000000000000000000000000000000000000000000000000000000000815260206004820152601b60248201527f536166654d6174683a206164646974696f6e206f766572666c6f770000000000604482015290519081900360640190fd5b60006103bf83836040518060400160405280601f81526020017f536166654d6174683a207375627472616374696f6e20756e646572666c6f770081525061057c565b60008183610566576040517f08c379a00000000000000000000000000000000000000000000000000000000081526004018080602001828103825283818151815260200191508051906020019080838360005b8381101561052b578181015183820152602001610513565b50505050905090810190601f1680156105585780820380516001836020036101000a031916815260200191505b509250505060405180910390fd5b50600083858161057257fe5b0495945050505050565b600081848411156105e8576040517f08c379a000000000000000000000000000000000000000000000000000000000815260206004820181815283516024840152835190928392604490910191908501908083836000831561052b578181015183820152602001610513565b50505090039056fe536166654d6174683a206d756c7469706c69636174696f6e206f766572666c6f77a265627a7a723158205f72032f581efe445db5a149d0cf6d94d8a8caae9976c956d5e4eff0169c743664736f6c63430005110032",
    "linkReferences": {}
  }
}