{
  "abi": [
    {
      "inputs": [
        {
          "internalType": "contract CToken",
          "name": "cToken",
          "type": "address"
        }
      ],
      "name": "getUnderlyingPrice",
      "outputs": [
        {
          "internalType": "uint256",
          "name": "",
          "type": "uint256"
        }
      ],
      "stateMutability": "view",
      "type": "function"
    },
    {
      "inputs": [
        {
          "internalType": "address",
          "name": "underlying",
          "type": "address"
        }
      ],
      "name": "price",
      "outputs": [
        {
          "internalType": "uint256",
          "name": "",
          "type": "uint256"
        }
      ],
      "stateMutability": "view",
      "type": "function"
    }
  ],
  "bytecode": {
    "object": "0x608060405234801561001057600080fd5b50610969806100206000396000f3fe608060405234801561001057600080fd5b50600436106100365760003560e01c8063aea910781461003b578063fc57d4df14610080575b600080fd5b61006e6004803603602081101561005157600080fd5b503573ffffffffffffffffffffffffffffffffffffffff166100b3565b60408051918252519081900360200190f35b61006e6004803603602081101561009657600080fd5b503573ffffffffffffffffffffffffffffffffffffffff166100c6565b60006100be82610202565b90505b919050565b6000808273ffffffffffffffffffffffffffffffffffffffff16636f307dc36040518163ffffffff1660e01b815260040160206040518083038186803b15801561010f57600080fd5b505afa158015610123573d6000803e3d6000fd5b505050506040513d602081101561013957600080fd5b5051604080517f313ce56700000000000000000000000000000000000000000000000000000000815290519192506101fb9173ffffffffffffffffffffffffffffffffffffffff84169163313ce567916004808301926020929190829003018186803b1580156101a857600080fd5b505afa1580156101bc573d6000803e3d6000fd5b505050506040513d60208110156101d257600080fd5b505160ff16600a0a6101f5670de0b6b3a76400006101ef85610202565b906106c2565b9061073e565b9392505050565b60008082905060008173ffffffffffffffffffffffffffffffffffffffff166318160ddd6040518163ffffffff1660e01b815260040160206040518083038186803b15801561025057600080fd5b505afa158015610264573d6000803e3d6000fd5b505050506040513d602081101561027a57600080fd5b505190508061028e576000925050506100c1565b6000808373ffffffffffffffffffffffffffffffffffffffff16630902f1ac6040518163ffffffff1660e01b815260040160606040518083038186803b1580156102d757600080fd5b505afa1580156102eb573d6000803e3d6000fd5b505050506040513d606081101561030157600080fd5b508051602091820151604080517f0dfe168100000000000000000000000000000000000000000000000000000000815290516dffffffffffffffffffffffffffff938416965092909116935060009273ffffffffffffffffffffffffffffffffffffffff881692630dfe1681926004808201939291829003018186803b15801561038a57600080fd5b505afa15801561039e573d6000803e3d6000fd5b505050506040513d60208110156103b457600080fd5b5051604080517fd21220a7000000000000000000000000000000000000000000000000000000008152905191925060009173ffffffffffffffffffffffffffffffffffffffff88169163d21220a7916004808301926020929190829003018186803b15801561042257600080fd5b505afa158015610436573d6000803e3d6000fd5b505050506040513d602081101561044c57600080fd5b50519050600073ffffffffffffffffffffffffffffffffffffffff831673c02aaa39b223fe8d0a0e5c4f27ead9083c756cc2146105b2576105ad8373ffffffffffffffffffffffffffffffffffffffff1663313ce5676040518163ffffffff1660e01b815260040160206040518083038186803b1580156104cc57600080fd5b505afa1580156104e0573d6000803e3d6000fd5b505050506040513d60208110156104f657600080fd5b5051604080517faea9107800000000000000000000000000000000000000000000000000000000815273ffffffffffffffffffffffffffffffffffffffff87166004820152905160ff909216600a0a916101f591670de0b6b3a764000091339163aea91078916024808301926020929190829003018186803b15801561057b57600080fd5b505afa15801561058f573d6000803e3d6000fd5b505050506040513d60208110156105a557600080fd5b5051906106c2565b6105bc565b670de0b6b3a76400005b9050600073ffffffffffffffffffffffffffffffffffffffff831673c02aaa39b223fe8d0a0e5c4f27ead9083c756cc21461063f5761063a8373ffffffffffffffffffffffffffffffffffffffff1663313ce5676040518163ffffffff1660e01b815260040160206040518083038186803b1580156104cc57600080fd5b610649565b670de0b6b3a76400005b90506000610676886101f56e0100000000000000000000000000006101ef6106718c8c6106c2565b6107bf565b90506106b36701000000000000006101f5610690856107bf565b6101ef6701000000000000006101f56106a88a6107bf565b6101ef8960026106c2565b9b9a5050505050505050505050565b6000826106d157506000610738565b828202828482816106de57fe5b0414610735576040517f08c379a00000000000000000000000000000000000000000000000000000000081526004018080602001828103825260218152602001806109136021913960400191505060405180910390fd5b90505b92915050565b60008082116107ae57604080517f08c379a000000000000000000000000000000000000000000000000000000000815260206004820152601a60248201527f536166654d6174683a206469766973696f6e206279207a65726f000000000000604482015290519081900360640190fd5b8183816107b757fe5b049392505050565b6000816107ce575060006100c1565b81600170010000000000000000000000000000000082106107f45760809190911c9060401b5b68010000000000000000821061080f5760409190911c9060201b5b64010000000082106108265760209190911c9060101b5b62010000821061083b5760109190911c9060081b5b610100821061084f5760089190911c9060041b5b601082106108625760049190911c9060021b5b6008821061086e5760011b5b600181858161087957fe5b048201901c9050600181858161088b57fe5b048201901c9050600181858161089d57fe5b048201901c905060018185816108af57fe5b048201901c905060018185816108c157fe5b048201901c905060018185816108d357fe5b048201901c905060018185816108e557fe5b048201901c905060008185816108f757fe5b0490508082106109075780610909565b815b9594505050505056fe536166654d6174683a206d756c7469706c69636174696f6e206f766572666c6f77a26469706673582212201c34b9ef9afa709b99e073e0dd63174c2e1304345eb1b10f015791a27a37ce6864736f6c634300060c0033",
    "linkReferences": {}
  }
}