{
  "abi": [
    {
      "inputs": [
        {
          "internalType": "address",
          "name": "_admin",
          "type": "address"
        },
        {
          "internalType": "bool",
          "name": "_canAdminOverwrite",
          "type": "bool"
        }
      ],
      "stateMutability": "nonpayable",
      "type": "constructor"
    },
    {
      "anonymous": false,
      "inputs": [
        {
          "indexed": false,
          "internalType": "address",
          "name": "oldAdmin",
          "type": "address"
        },
        {
          "indexed": false,
          "internalType": "address",
          "name": "newAdmin",
          "type": "address"
        }
      ],
      "name": "NewAdmin",
      "type": "event"
    },
    {
      "inputs": [],
      "name": "BTC_ETH_PRICE_FEED",
      "outputs": [
        {
          "internalType": "contract AggregatorV3Interface",
          "name": "",
          "type": "address"
        }
      ],
      "stateMutability": "view",
      "type": "function"
    },
    {
      "inputs": [],
      "name": "ETH_USD_PRICE_FEED",
      "outputs": [
        {
          "internalType": "contract AggregatorV3Interface",
          "name": "",
          "type": "address"
        }
      ],
      "stateMutability": "view",
      "type": "function"
    },
    {
      "inputs": [],
      "name": "admin",
      "outputs": [
        {
          "internalType": "address",
          "name": "",
          "type": "address"
        }
      ],
      "stateMutability": "view",
      "type": "function"
    },
    {
      "inputs": [],
      "name": "canAdminOverwrite",
      "outputs": [
        {
          "internalType": "bool",
          "name": "",
          "type": "bool"
        }
      ],
      "stateMutability": "view",
      "type": "function"
    },
    {
      "inputs": [
        {
          "internalType": "address",
          "name": "newAdmin",
          "type": "address"
        }
      ],
      "name": "changeAdmin",
      "outputs": [],
      "stateMutability": "nonpayable",
      "type": "function"
    },
    {
      "inputs": [
        {
          "internalType": "address",
          "name": "",
          "type": "address"
        }
      ],
      "name": "feedBaseCurrencies",
      "outputs": [
        {
          "internalType": "enum ChainlinkPriceOracleV2.FeedBaseCurrency",
          "name": "",
          "type": "uint8"
        }
      ],
      "stateMutability": "view",
      "type": "function"
    },
    {
      "inputs": [
        {
          "internalType": "contract CToken",
          "name": "cToken",
          "type": "address"
        }
      ],
      "name": "getUnderlyingPrice",
      "outputs": [
        {
          "internalType": "uint256",
          "name": "",
          "type": "uint256"
        }
      ],
      "stateMutability": "view",
      "type": "function"
    },
    {
      "inputs": [
        {
          "internalType": "address",
          "name": "underlying",
          "type": "address"
        }
      ],
      "name": "price",
      "outputs": [
        {
          "internalType": "uint256",
          "name": "",
          "type": "uint256"
        }
      ],
      "stateMutability": "view",
      "type": "function"
    },
    {
      "inputs": [
        {
          "internalType": "address",
          "name": "",
          "type": "address"
        }
      ],
      "name": "priceFeeds",
      "outputs": [
        {
          "internalType": "contract AggregatorV3Interface",
          "name": "",
          "type": "address"
        }
      ],
      "stateMutability": "view",
      "type": "function"
    },
    {
      "inputs": [
        {
          "internalType": "address[]",
          "name": "underlyings",
          "type": "address[]"
        },
        {
          "internalType": "contract AggregatorV3Interface[]",
          "name": "feeds",
          "type": "address[]"
        },
        {
          "internalType": "enum ChainlinkPriceOracleV2.FeedBaseCurrency",
          "name": "baseCurrency",
          "type": "uint8"
        }
      ],
      "name": "setPriceFeeds",
      "outputs": [],
      "stateMutability": "nonpayable",
      "type": "function"
    }
  ],
  "bytecode": {
    "object": "0x608060405234801561001057600080fd5b5060405161124e38038061124e8339818101604052604081101561003357600080fd5b50805160209091015160048054911515600160a01b0260ff60a01b196001600160a01b039094166001600160a01b0319938416179390931692909217909155600280548216735f4ec3df9cbd43714fe2740f5e3616155c5b84191790556003805490911673deb288f737066589598e9214e782fa5a8ed689e8179055611190806100be6000396000f3fe608060405234801561001057600080fd5b50600436106100be5760003560e01c8063b0f0abe911610076578063cf0b06131161005b578063cf0b06131461033d578063f851a44014610345578063fc57d4df1461034d576100be565b8063b0f0abe9146102e1578063cebae71d146102e9576100be565b80638f283970116100a75780638f2839701461020d5780639dcb511a14610240578063aea910781461029c576100be565b8063656b0fd1146100c357806371f3245a146100df575b600080fd5b6100cb610380565b604080519115158252519081900360200190f35b61020b600480360360608110156100f557600080fd5b81019060208101813564010000000081111561011057600080fd5b82018360208201111561012257600080fd5b8035906020019184602083028401116401000000008311171561014457600080fd5b919080806020026020016040519081016040528093929190818152602001838360200280828437600092019190915250929594936020810193503591505064010000000081111561019457600080fd5b8201836020820111156101a657600080fd5b803590602001918460208302840111640100000000831117156101c857600080fd5b9190808060200260200160405190810160405280939291908181526020018383602002808284376000920191909152509295505050903560ff1691506103a19050565b005b61020b6004803603602081101561022357600080fd5b503573ffffffffffffffffffffffffffffffffffffffff16610601565b6102736004803603602081101561025657600080fd5b503573ffffffffffffffffffffffffffffffffffffffff1661070f565b6040805173ffffffffffffffffffffffffffffffffffffffff9092168252519081900360200190f35b6102cf600480360360208110156102b257600080fd5b503573ffffffffffffffffffffffffffffffffffffffff16610737565b60408051918252519081900360200190f35b61027361074a565b61031c600480360360208110156102ff57600080fd5b503573ffffffffffffffffffffffffffffffffffffffff16610766565b6040518082600281111561032c57fe5b815260200191505060405180910390f35b61027361077b565b610273610797565b6102cf6004803603602081101561036357600080fd5b503573ffffffffffffffffffffffffffffffffffffffff166107b3565b60045474010000000000000000000000000000000000000000900460ff1681565b60045473ffffffffffffffffffffffffffffffffffffffff16331461042757604080517f08c379a000000000000000000000000000000000000000000000000000000000815260206004820152601860248201527f53656e646572206973206e6f74207468652061646d696e2e0000000000000000604482015290519081900360640190fd5b60008351118015610439575081518351145b61048e576040517f08c379a00000000000000000000000000000000000000000000000000000000081526004018080602001828103825260388152602001806110746038913960400191505060405180910390fd5b60005b83518110156105fb5760008482815181106104a857fe5b60200260200101519050600460149054906101000a900460ff166105445773ffffffffffffffffffffffffffffffffffffffff8181166000908152602081905260409020541615610544576040517f08c379a000000000000000000000000000000000000000000000000000000000815260040180806020018281038252605081526020018061110b6050913960600191505060405180910390fd5b83828151811061055057fe5b60209081029190910181015173ffffffffffffffffffffffffffffffffffffffff8381166000908152808452604080822080547fffffffffffffffffffffffff00000000000000000000000000000000000000001693909416929092179092556001928390529020805485927fffffffffffffffffffffffffffffffffffffffffffffffffffffffffffffff00909116908360028111156105ed57fe5b021790555050600101610491565b50505050565b60045473ffffffffffffffffffffffffffffffffffffffff16331461068757604080517f08c379a000000000000000000000000000000000000000000000000000000000815260206004820152601860248201527f53656e646572206973206e6f74207468652061646d696e2e0000000000000000604482015290519081900360640190fd5b6004805473ffffffffffffffffffffffffffffffffffffffff8381167fffffffffffffffffffffffff0000000000000000000000000000000000000000831681179093556040805191909216808252602082019390935281517ff9ffabca9c8276e99321725bcb43fb076a6c66a54b7f21c4e8146d8519b417dc929181900390910190a15050565b60006020819052908152604090205473ffffffffffffffffffffffffffffffffffffffff1681565b60006107428261098e565b90505b919050565b60025473ffffffffffffffffffffffffffffffffffffffff1681565b60016020526000908152604090205460ff1681565b60035473ffffffffffffffffffffffffffffffffffffffff1681565b60045473ffffffffffffffffffffffffffffffffffffffff1681565b60008173ffffffffffffffffffffffffffffffffffffffff1663ac784ddc6040518163ffffffff1660e01b815260040160206040518083038186803b1580156107fb57600080fd5b505afa15801561080f573d6000803e3d6000fd5b505050506040513d602081101561082557600080fd5b50511561083b5750670de0b6b3a7640000610745565b60008273ffffffffffffffffffffffffffffffffffffffff16636f307dc36040518163ffffffff1660e01b815260040160206040518083038186803b15801561088357600080fd5b505afa158015610897573d6000803e3d6000fd5b505050506040513d60208110156108ad57600080fd5b5051905060006108bc8261098e565b905060008273ffffffffffffffffffffffffffffffffffffffff1663313ce5676040518163ffffffff1660e01b815260040160206040518083038186803b15801561090657600080fd5b505afa15801561091a573d6000803e3d6000fd5b505050506040513d602081101561093057600080fd5b505160ff16905060128111156109745761096f827fffffffffffffffffffffffffffffffffffffffffffffffffffffffffffffffee8301600a0a610f76565b610985565b610985826012839003600a0a610ff9565b95945050505050565b600073c02aaa39b223fe8d0a0e5c4f27ead9083c756cc273ffffffffffffffffffffffffffffffffffffffff831614156109d15750670de0b6b3a7640000610745565b73ffffffffffffffffffffffffffffffffffffffff8083166000908152602081905260409020541680610a4f576040517f08c379a000000000000000000000000000000000000000000000000000000000815260040180806020018281038252603e8152602001806110ac603e913960400191505060405180910390fd5b73ffffffffffffffffffffffffffffffffffffffff831660009081526001602052604081205460ff1690816002811115610a8557fe5b1415610bb15760008273ffffffffffffffffffffffffffffffffffffffff1663feaf968c6040518163ffffffff1660e01b815260040160a06040518083038186803b158015610ad357600080fd5b505afa158015610ae7573d6000803e3d6000fd5b505050506040513d60a0811015610afd57600080fd5b506020015190506000811215610b14576000610ba7565b610ba78373ffffffffffffffffffffffffffffffffffffffff1663313ce5676040518163ffffffff1660e01b815260040160206040518083038186803b158015610b5d57600080fd5b505afa158015610b71573d6000803e3d6000fd5b505050506040513d6020811015610b8757600080fd5b505160ff16600a0a610ba183670de0b6b3a7640000610ff9565b90610f76565b9350505050610745565b6001816002811115610bbf57fe5b1415610d9d57600254604080517ffeaf968c000000000000000000000000000000000000000000000000000000008152905160009273ffffffffffffffffffffffffffffffffffffffff169163feaf968c9160048083019260a0929190829003018186803b158015610c3057600080fd5b505afa158015610c44573d6000803e3d6000fd5b505050506040513d60a0811015610c5a57600080fd5b5060200151905060008113610c755760009350505050610745565b60008373ffffffffffffffffffffffffffffffffffffffff1663feaf968c6040518163ffffffff1660e01b815260040160a06040518083038186803b158015610cbd57600080fd5b505afa158015610cd1573d6000803e3d6000fd5b505050506040513d60a0811015610ce757600080fd5b506020015190506000811215610cfe576000610d92565b610d9282610ba18673ffffffffffffffffffffffffffffffffffffffff1663313ce5676040518163ffffffff1660e01b815260040160206040518083038186803b158015610d4b57600080fd5b505afa158015610d5f573d6000803e3d6000fd5b505050506040513d6020811015610d7557600080fd5b505160ff16600a0a610ba1856a52b7d2dcc80cd2e4000000610ff9565b945050505050610745565b6002816002811115610dab57fe5b1415610f6f57600354604080517ffeaf968c000000000000000000000000000000000000000000000000000000008152905160009273ffffffffffffffffffffffffffffffffffffffff169163feaf968c9160048083019260a0929190829003018186803b158015610e1c57600080fd5b505afa158015610e30573d6000803e3d6000fd5b505050506040513d60a0811015610e4657600080fd5b5060200151905060008113610e615760009350505050610745565b60008373ffffffffffffffffffffffffffffffffffffffff1663feaf968c6040518163ffffffff1660e01b815260040160a06040518083038186803b158015610ea957600080fd5b505afa158015610ebd573d6000803e3d6000fd5b505050506040513d60a0811015610ed357600080fd5b506020015190506000811215610eea576000610d92565b610d928473ffffffffffffffffffffffffffffffffffffffff1663313ce5676040518163ffffffff1660e01b815260040160206040518083038186803b158015610f3357600080fd5b505afa158015610f47573d6000803e3d6000fd5b505050506040513d6020811015610f5d57600080fd5b505160ff16600a0a610ba18385610ff9565b5050919050565b6000808211610fe657604080517f08c379a000000000000000000000000000000000000000000000000000000000815260206004820152601a60248201527f536166654d6174683a206469766973696f6e206279207a65726f000000000000604482015290519081900360640190fd5b818381610fef57fe5b0490505b92915050565b60008261100857506000610ff3565b8282028284828161101557fe5b041461106c576040517f08c379a00000000000000000000000000000000000000000000000000000000081526004018080602001828103825260218152602001806110ea6021913960400191505060405180910390fd5b939250505056fe4c656e67746873206f6620626f746820617272617973206d75737420626520657175616c20616e642067726561746572207468616e20302e4e6f20436861696e6c696e6b207072696365206665656420666f756e6420666f72207468697320756e6465726c79696e6720455243323020746f6b656e2e536166654d6174683a206d756c7469706c69636174696f6e206f766572666c6f7741646d696e2063616e6e6f74206f7665727772697465206578697374696e672061737369676e6d656e7473206f6620707269636520666565647320746f20756e6465726c79696e6720746f6b656e732ea2646970667358221220447968e1df19d1df6010946bde8a5e8ca9ad2898452d19bab44a5a8f3a36d47f64736f6c634300060c0033",
    "linkReferences": {}
  }
}