{
  "abi": [
    {
      "inputs": [
        {
          "internalType": "address",
          "name": "_baseToken",
          "type": "address"
        }
      ],
      "stateMutability": "nonpayable",
      "type": "constructor"
    },
    {
      "inputs": [],
      "name": "baseToken",
      "outputs": [
        {
          "internalType": "address",
          "name": "",
          "type": "address"
        }
      ],
      "stateMutability": "view",
      "type": "function"
    },
    {
      "inputs": [
        {
          "internalType": "contract CToken",
          "name": "cToken",
          "type": "address"
        }
      ],
      "name": "getUnderlyingPrice",
      "outputs": [
        {
          "internalType": "uint256",
          "name": "",
          "type": "uint256"
        }
      ],
      "stateMutability": "view",
      "type": "function"
    },
    {
      "inputs": [
        {
          "internalType": "address",
          "name": "underlying",
          "type": "address"
        }
      ],
      "name": "price",
      "outputs": [
        {
          "internalType": "uint256",
          "name": "",
          "type": "uint256"
        }
      ],
      "stateMutability": "view",
      "type": "function"
    }
  ],
  "bytecode": {
    "object": "0x60a060405234801561001057600080fd5b506040516104d23803806104d28339818101604052602081101561003357600080fd5b5051606081901b6001600160601b0319166080526001600160a01b031661046661006c60003980610102528061028052506104666000f3fe608060405234801561001057600080fd5b50600436106100415760003560e01c8063aea9107814610046578063c55dae631461008b578063fc57d4df146100bc575b600080fd5b6100796004803603602081101561005c57600080fd5b503573ffffffffffffffffffffffffffffffffffffffff166100ef565b60408051918252519081900360200190f35b610093610100565b6040805173ffffffffffffffffffffffffffffffffffffffff9092168252519081900360200190f35b610079600480360360208110156100d257600080fd5b503573ffffffffffffffffffffffffffffffffffffffff16610124565b60006100fa82610260565b92915050565b7f000000000000000000000000000000000000000000000000000000000000000081565b6000808273ffffffffffffffffffffffffffffffffffffffff16636f307dc36040518163ffffffff1660e01b815260040160206040518083038186803b15801561016d57600080fd5b505afa158015610181573d6000803e3d6000fd5b505050506040513d602081101561019757600080fd5b5051604080517f313ce56700000000000000000000000000000000000000000000000000000000815290519192506102599173ffffffffffffffffffffffffffffffffffffffff84169163313ce567916004808301926020929190829003018186803b15801561020657600080fd5b505afa15801561021a573d6000803e3d6000fd5b505050506040513d602081101561023057600080fd5b505160ff16600a0a610253670de0b6b3a764000061024d85610260565b9061031b565b9061038e565b9392505050565b60003373ffffffffffffffffffffffffffffffffffffffff1663aea910787f00000000000000000000000000000000000000000000000000000000000000006040518263ffffffff1660e01b8152600401808273ffffffffffffffffffffffffffffffffffffffff16815260200191505060206040518083038186803b1580156102e957600080fd5b505afa1580156102fd573d6000803e3d6000fd5b505050506040513d602081101561031357600080fd5b505192915050565b60008261032a575060006100fa565b8282028284828161033757fe5b0414610259576040517f08c379a00000000000000000000000000000000000000000000000000000000081526004018080602001828103825260218152602001806104106021913960400191505060405180910390fd5b60008082116103fe57604080517f08c379a000000000000000000000000000000000000000000000000000000000815260206004820152601a60248201527f536166654d6174683a206469766973696f6e206279207a65726f000000000000604482015290519081900360640190fd5b81838161040757fe5b04939250505056fe536166654d6174683a206d756c7469706c69636174696f6e206f766572666c6f77a2646970667358221220f410ea43d23bbde29ad3b0a00874216aabde61b8e93d8ca7159b46486933fa9764736f6c634300060c0033",
    "linkReferences": {}
  }
}