{
  "abi": [
    {
      "inputs": [
        {
          "internalType": "contract ERC20",
          "name": "_rewardToken",
          "type": "address"
        },
        {
          "internalType": "contract IFlywheelRewards",
          "name": "_flywheelRewards",
          "type": "address"
        },
        {
          "internalType": "contract IFlywheelBooster",
          "name": "_flywheelBooster",
          "type": "address"
        },
        {
          "internalType": "address",
          "name": "_owner",
          "type": "address"
        },
        {
          "internalType": "contract Authority",
          "name": "_authority",
          "type": "address"
        }
      ],
      "stateMutability": "nonpayable",
      "type": "constructor"
    },
    {
      "anonymous": false,
      "inputs": [
        {
          "indexed": true,
          "internalType": "contract ERC20",
          "name": "strategy",
          "type": "address"
        },
        {
          "indexed": true,
          "internalType": "address",
          "name": "user",
          "type": "address"
        },
        {
          "indexed": false,
          "internalType": "uint256",
          "name": "rewardsDelta",
          "type": "uint256"
        },
        {
          "indexed": false,
          "internalType": "uint256",
          "name": "rewardsIndex",
          "type": "uint256"
        }
      ],
      "name": "AccrueRewards",
      "type": "event"
    },
    {
      "anonymous": false,
      "inputs": [
        {
          "indexed": true,
          "internalType": "address",
          "name": "newStrategy",
          "type": "address"
        }
      ],
      "name": "AddStrategy",
      "type": "event"
    },
    {
      "anonymous": false,
      "inputs": [
        {
          "indexed": true,
          "internalType": "address",
          "name": "user",
          "type": "address"
        },
        {
          "indexed": true,
          "internalType": "contract Authority",
          "name": "newAuthority",
          "type": "address"
        }
      ],
      "name": "AuthorityUpdated",
      "type": "event"
    },
    {
      "anonymous": false,
      "inputs": [
        {
          "indexed": true,
          "internalType": "address",
          "name": "user",
          "type": "address"
        },
        {
          "indexed": false,
          "internalType": "uint256",
          "name": "amount",
          "type": "uint256"
        }
      ],
      "name": "ClaimRewards",
      "type": "event"
    },
    {
      "anonymous": false,
      "inputs": [
        {
          "indexed": true,
          "internalType": "address",
          "name": "newBooster",
          "type": "address"
        }
      ],
      "name": "FlywheelBoosterUpdate",
      "type": "event"
    },
    {
      "anonymous": false,
      "inputs": [
        {
          "indexed": true,
          "internalType": "address",
          "name": "newFlywheelRewards",
          "type": "address"
        }
      ],
      "name": "FlywheelRewardsUpdate",
      "type": "event"
    },
    {
      "anonymous": false,
      "inputs": [
        {
          "indexed": true,
          "internalType": "address",
          "name": "user",
          "type": "address"
        },
        {
          "indexed": true,
          "internalType": "address",
          "name": "newOwner",
          "type": "address"
        }
      ],
      "name": "OwnerUpdated",
      "type": "event"
    },
    {
      "inputs": [],
      "name": "ONE",
      "outputs": [
        {
          "internalType": "uint224",
          "name": "",
          "type": "uint224"
        }
      ],
      "stateMutability": "view",
      "type": "function"
    },
    {
      "inputs": [
        {
          "internalType": "contract ERC20",
          "name": "strategy",
          "type": "address"
        },
        {
          "internalType": "address",
          "name": "user",
          "type": "address"
        }
      ],
      "name": "accrue",
      "outputs": [
        {
          "internalType": "uint256",
          "name": "",
          "type": "uint256"
        }
      ],
      "stateMutability": "nonpayable",
      "type": "function"
    },
    {
      "inputs": [
        {
          "internalType": "contract ERC20",
          "name": "strategy",
          "type": "address"
        },
        {
          "internalType": "address",
          "name": "user",
          "type": "address"
        },
        {
          "internalType": "address",
          "name": "secondUser",
          "type": "address"
        }
      ],
      "name": "accrue",
      "outputs": [
        {
          "internalType": "uint256",
          "name": "",
          "type": "uint256"
        },
        {
          "internalType": "uint256",
          "name": "",
          "type": "uint256"
        }
      ],
      "stateMutability": "nonpayable",
      "type": "function"
    },
    {
      "inputs": [
        {
          "internalType": "contract ERC20",
          "name": "strategy",
          "type": "address"
        }
      ],
      "name": "addMarketForRewards",
      "outputs": [],
      "stateMutability": "nonpayable",
      "type": "function"
    },
    {
      "inputs": [
        {
          "internalType": "contract ERC20",
          "name": "strategy",
          "type": "address"
        }
      ],
      "name": "addStrategyForRewards",
      "outputs": [],
      "stateMutability": "nonpayable",
      "type": "function"
    },
    {
      "inputs": [
        {
          "internalType": "uint256",
          "name": "",
          "type": "uint256"
        }
      ],
      "name": "allStrategies",
      "outputs": [
        {
          "internalType": "contract ERC20",
          "name": "",
          "type": "address"
        }
      ],
      "stateMutability": "view",
      "type": "function"
    },
    {
      "inputs": [],
      "name": "authority",
      "outputs": [
        {
          "internalType": "contract Authority",
          "name": "",
          "type": "address"
        }
      ],
      "stateMutability": "view",
      "type": "function"
    },
    {
      "inputs": [
        {
          "internalType": "address",
          "name": "user",
          "type": "address"
        }
      ],
      "name": "claimRewards",
      "outputs": [],
      "stateMutability": "nonpayable",
      "type": "function"
    },
    {
      "inputs": [
        {
          "internalType": "address",
          "name": "user",
          "type": "address"
        }
      ],
      "name": "compAccrued",
      "outputs": [
        {
          "internalType": "uint256",
          "name": "",
          "type": "uint256"
        }
      ],
      "stateMutability": "view",
      "type": "function"
    },
    {
      "inputs": [],
      "name": "flywheelBooster",
      "outputs": [
        {
          "internalType": "contract IFlywheelBooster",
          "name": "",
          "type": "address"
        }
      ],
      "stateMutability": "view",
      "type": "function"
    },
    {
      "inputs": [
        {
          "internalType": "contract ERC20",
          "name": "market",
          "type": "address"
        },
        {
          "internalType": "address",
          "name": "borrower",
          "type": "address"
        }
      ],
      "name": "flywheelPreBorrowerAction",
      "outputs": [],
      "stateMutability": "nonpayable",
      "type": "function"
    },
    {
      "inputs": [
        {
          "internalType": "contract ERC20",
          "name": "market",
          "type": "address"
        },
        {
          "internalType": "address",
          "name": "supplier",
          "type": "address"
        }
      ],
      "name": "flywheelPreSupplierAction",
      "outputs": [],
      "stateMutability": "nonpayable",
      "type": "function"
    },
    {
      "inputs": [
        {
          "internalType": "contract ERC20",
          "name": "market",
          "type": "address"
        },
        {
          "internalType": "address",
          "name": "src",
          "type": "address"
        },
        {
          "internalType": "address",
          "name": "dst",
          "type": "address"
        }
      ],
      "name": "flywheelPreTransferAction",
      "outputs": [],
      "stateMutability": "nonpayable",
      "type": "function"
    },
    {
      "inputs": [],
      "name": "flywheelRewards",
      "outputs": [
        {
          "internalType": "contract IFlywheelRewards",
          "name": "",
          "type": "address"
        }
      ],
      "stateMutability": "view",
      "type": "function"
    },
    {
      "inputs": [],
      "name": "getAllStrategies",
      "outputs": [
        {
          "internalType": "contract ERC20[]",
          "name": "",
          "type": "address[]"
        }
      ],
      "stateMutability": "view",
      "type": "function"
    },
    {
      "inputs": [],
      "name": "isFlywheel",
      "outputs": [
        {
          "internalType": "bool",
          "name": "",
          "type": "bool"
        }
      ],
      "stateMutability": "view",
      "type": "function"
    },
    {
      "inputs": [],
      "name": "isRewardsDistributor",
      "outputs": [
        {
          "internalType": "bool",
          "name": "",
          "type": "bool"
        }
      ],
      "stateMutability": "view",
      "type": "function"
    },
    {
      "inputs": [
        {
          "internalType": "contract ERC20",
          "name": "strategy",
          "type": "address"
        }
      ],
      "name": "marketState",
      "outputs": [
        {
          "components": [
            {
              "internalType": "uint224",
              "name": "index",
              "type": "uint224"
            },
            {
              "internalType": "uint32",
              "name": "lastUpdatedTimestamp",
              "type": "uint32"
            }
          ],
          "internalType": "struct FlywheelCore.RewardsState",
          "name": "",
          "type": "tuple"
        }
      ],
      "stateMutability": "view",
      "type": "function"
    },
    {
      "inputs": [],
      "name": "owner",
      "outputs": [
        {
          "internalType": "address",
          "name": "",
          "type": "address"
        }
      ],
      "stateMutability": "view",
      "type": "function"
    },
    {
      "inputs": [],
      "name": "rewardToken",
      "outputs": [
        {
          "internalType": "contract ERC20",
          "name": "",
          "type": "address"
        }
      ],
      "stateMutability": "view",
      "type": "function"
    },
    {
      "inputs": [],
      "name": "rewardingSupply",
      "outputs": [
        {
          "internalType": "bool",
          "name": "",
          "type": "bool"
        }
      ],
      "stateMutability": "view",
      "type": "function"
    },
    {
      "inputs": [
        {
          "internalType": "address",
          "name": "",
          "type": "address"
        }
      ],
      "name": "rewardsAccrued",
      "outputs": [
        {
          "internalType": "uint256",
          "name": "",
          "type": "uint256"
        }
      ],
      "stateMutability": "view",
      "type": "function"
    },
    {
      "inputs": [
        {
          "internalType": "contract Authority",
          "name": "newAuthority",
          "type": "address"
        }
      ],
      "name": "setAuthority",
      "outputs": [],
      "stateMutability": "nonpayable",
      "type": "function"
    },
    {
      "inputs": [
        {
          "internalType": "contract IFlywheelBooster",
          "name": "newBooster",
          "type": "address"
        }
      ],
      "name": "setBooster",
      "outputs": [],
      "stateMutability": "nonpayable",
      "type": "function"
    },
    {
      "inputs": [
        {
          "internalType": "contract IFlywheelRewards",
          "name": "newFlywheelRewards",
          "type": "address"
        }
      ],
      "name": "setFlywheelRewards",
      "outputs": [],
      "stateMutability": "nonpayable",
      "type": "function"
    },
    {
      "inputs": [
        {
          "internalType": "address",
          "name": "newOwner",
          "type": "address"
        }
      ],
      "name": "setOwner",
      "outputs": [],
      "stateMutability": "nonpayable",
      "type": "function"
    },
    {
      "inputs": [
        {
          "internalType": "contract ERC20",
          "name": "",
          "type": "address"
        }
      ],
      "name": "strategyState",
      "outputs": [
        {
          "internalType": "uint224",
          "name": "index",
          "type": "uint224"
        },
        {
          "internalType": "uint32",
          "name": "lastUpdatedTimestamp",
          "type": "uint32"
        }
      ],
      "stateMutability": "view",
      "type": "function"
    },
    {
      "inputs": [
        {
          "internalType": "contract ERC20",
          "name": "",
          "type": "address"
        },
        {
          "internalType": "address",
          "name": "",
          "type": "address"
        }
      ],
      "name": "userIndex",
      "outputs": [
        {
          "internalType": "uint224",
          "name": "",
          "type": "uint224"
        }
      ],
      "stateMutability": "view",
      "type": "function"
    }
  ],
  "bytecode": {
    "object": "0x60a06040523480156200001157600080fd5b506040516200168d3803806200168d833981016040819052620000349162000129565b600080546001600160a01b03199081166001600160a01b0385811691821784556001805490931690851617909155604051879287928792879287928492849233917f8292fce18fa69edf4db7b94ea2e58241df0ae57f97e0a6c9b29067028bf92d769190a36040516001600160a01b0382169033907fa3396fd7f6e0a21b50e5089d2da70d5ac0a3bbbd1f617a93f134b7638998019890600090a35050506001600160a01b0393841660805250600380549284166001600160a01b03199384161790556004805491909316911617905550620001a99350505050565b6001600160a01b03811681146200012657600080fd5b50565b600080600080600060a086880312156200014257600080fd5b85516200014f8162000110565b6020870151909550620001628162000110565b6040870151909450620001758162000110565b6060870151909350620001888162000110565b60808701519092506200019b8162000110565b809150509295509295909350565b6080516114b3620001da60003960008181610510015281816107d4015281816108580152610a9a01526114b36000f3fe608060405234801561001057600080fd5b50600436106101c45760003560e01c8063abc6d72d116100f9578063cc7ebdc411610097578063e6e162e811610071578063e6e162e8146104d3578063ef5cfb8c146104e5578063f046ee5c146104f8578063f7c618c11461050b57600080fd5b8063cc7ebdc41461043b578063dde684a514610464578063e1e3dfeb146104c057600080fd5b8063bf7e214f116100d3578063bf7e214f146103dc578063c2ee3a08146103ef578063c3b28864146103fe578063cc6bc1011461041357600080fd5b8063abc6d72d1461022f578063b006340d146103b6578063b9be44ac146103c957600080fd5b80637a9e5e4b116101665780638fb00913116101405780638fb00913146102ff57806391cb8c721461022f578063a7a9a62c14610312578063ab5497d7146103a357600080fd5b80637a9e5e4b146102935780637fb5ad38146102a65780638da5cb5b146102d457600080fd5b80631c9161e0116101a25780631c9161e0146102475780634e081c951461025a5780635a826df31461026d578063715cad161461028057600080fd5b8063116139d3146101c957806313af40351461021a57806317e6a45f1461022f575b600080fd5b6101fd6101d736600461121f565b60076020908152600092835260408084209091529082529020546001600160e01b031681565b6040516001600160e01b0390911681526020015b60405180910390f35b61022d610228366004611258565b610532565b005b610237600181565b6040519015158152602001610211565b61022d61025536600461121f565b6105b8565b61022d61026836600461127c565b6105c7565b61022d61027b366004611258565b6105d9565b61022d61028e366004611258565b610655565b61022d6102a1366004611258565b610693565b6102c66102b4366004611258565b60056020526000908152604090205481565b604051908152602001610211565b6000546102e7906001600160a01b031681565b6040516001600160a01b039091168152602001610211565b61022d61030d366004611258565b61077d565b610379610320366004611258565b6040805180820190915260008082526020820152506001600160a01b03166000908152600660209081526040918290208251808401909352546001600160e01b0381168352600160e01b900463ffffffff169082015290565b6040805182516001600160e01b0316815260209283015163ffffffff169281019290925201610211565b6004546102e7906001600160a01b031681565b61022d6103c4366004611258565b610687565b6102c66103d736600461121f565b6108cd565b6001546102e7906001600160a01b031681565b6101fd670de0b6b3a764000081565b610406610943565b60405161021191906112c7565b61042661042136600461127c565b6109a5565b60408051928352602083019190915201610211565b6102c6610449366004611258565b6001600160a01b031660009081526005602052604090205490565b61049c610472366004611258565b6006602052600090815260409020546001600160e01b03811690600160e01b900463ffffffff1682565b604080516001600160e01b03909316835263ffffffff909116602083015201610211565b6102e76104ce366004611314565b610a2e565b61022d6104e136600461121f565b5050565b61022d6104f3366004611258565b610a58565b6003546102e7906001600160a01b031681565b6102e77f000000000000000000000000000000000000000000000000000000000000000081565b610548336000356001600160e01b031916610b0b565b61056d5760405162461bcd60e51b81526004016105649061132d565b60405180910390fd5b600080546001600160a01b0319166001600160a01b0383169081178255604051909133917f8292fce18fa69edf4db7b94ea2e58241df0ae57f97e0a6c9b29067028bf92d769190a350565b6105c282826108cd565b505050565b6105d28383836109a5565b5050505050565b6105ef336000356001600160e01b031916610b0b565b61060b5760405162461bcd60e51b81526004016105649061132d565b600480546001600160a01b0319166001600160a01b0383169081179091556040517ff2fb4350e8466c152b500f8e58c0c23f01bbc332dc82f5375267e70b5f50f19990600090a250565b61066b336000356001600160e01b031916610b0b565b6106875760405162461bcd60e51b81526004016105649061132d565b61069081610bb5565b50565b6000546001600160a01b0316331480610728575060015460405163b700961360e01b81526001600160a01b039091169063b7009613906106e790339030906001600160e01b03196000351690600401611353565b602060405180830381865afa158015610704573d6000803e3d6000fd5b505050506040513d601f19601f820116820180604052508101906107289190611380565b61073157600080fd5b600180546001600160a01b0319166001600160a01b03831690811790915560405133907fa3396fd7f6e0a21b50e5089d2da70d5ac0a3bbbd1f617a93f134b7638998019890600090a350565b610793336000356001600160e01b031916610b0b565b6107af5760405162461bcd60e51b81526004016105649061132d565b6003546040516370a0823160e01b81526001600160a01b0391821660048201526000917f000000000000000000000000000000000000000000000000000000000000000016906370a0823190602401602060405180830381865afa15801561081b573d6000803e3d6000fd5b505050506040513d601f19601f8201168201806040525081019061083f91906113a2565b9050801561088257600354610882906001600160a01b037f0000000000000000000000000000000000000000000000000000000000000000811691168484610ceb565b600380546001600160a01b0319166001600160a01b0384169081179091556040517ff1ba364f52e65f08563196b608289b1da2a923cdd0aa7e20dfe664c4ad294c9590600090a25050565b6001600160a01b03821660009081526006602090815260408083208151808301909252546001600160e01b038116808352600160e01b90910463ffffffff16928201929092529061092257600091505061093d565b61092c8482610d6e565b9050610939848483610fb0565b9150505b92915050565b6060600280548060200260200160405190810160405280929190818152602001828054801561099b57602002820191906000526020600020905b81546001600160a01b0316815260019091019060200180831161097d575b5050505050905090565b6001600160a01b03831660009081526006602090815260408083208151808301909252546001600160e01b038116808352600160e01b90910463ffffffff169282019290925282916109fe576000809250925050610a26565b610a088682610d6e565b9050610a15868683610fb0565b610a20878684610fb0565b92509250505b935093915050565b60028181548110610a3e57600080fd5b6000918252602090912001546001600160a01b0316905081565b6001600160a01b03811660009081526005602052604090205480156104e1576001600160a01b03808316600090815260056020526040812055600354610ac4917f0000000000000000000000000000000000000000000000000000000000000000811691168484610ceb565b816001600160a01b03167f1f89f96333d3133000ee447473151fa9606543368f02271c9d95ae14f13bcc6782604051610aff91815260200190565b60405180910390a25050565b6001546000906001600160a01b03168015801590610b95575060405163b700961360e01b81526001600160a01b0382169063b700961390610b5490879030908890600401611353565b602060405180830381865afa158015610b71573d6000803e3d6000fd5b505050506040513d601f19601f82011682018060405250810190610b959190611380565b8061093957506000546001600160a01b0385811691161491505092915050565b6001600160a01b0381166000908152600660205260409020546001600160e01b031615610c0f5760405162461bcd60e51b8152602060048201526008602482015267737472617465677960c01b6044820152606401610564565b6040518060400160405280670de0b6b3a76400006001600160e01b03168152602001610c3a426111e1565b63ffffffff9081169091526001600160a01b038316600081815260066020908152604080832086519690920151909416600160e01b026001600160e01b0390951694909417909355600280546001810182559084527f405787fa12a823e0f2b7631cc41b3ba8828b3321ca811111fa75cd3aa3bb5ace0180546001600160a01b03191682179055905190917f69887873d46778fb35539b0a9992d9176ca03c1820b0afb538bc3a6f63326b1091a250565b60006040516323b872dd60e01b81528460048201528360248201528260448201526020600060648360008a5af13d15601f3d11600160005114161716915050806105d25760405162461bcd60e51b81526020600482015260146024820152731514905394d1915497d19493d357d1905253115160621b6044820152606401610564565b6040805180820190915260008082526020820152600354602083015160405163b334db7b60e01b81526001600160a01b03868116600483015263ffffffff9092166024820152600092919091169063b334db7b906044016020604051808303816000875af1158015610de4573d6000803e3d6000fd5b505050506040513d601f19601f82011682018060405250810190610e0891906113a2565b83925090508015610fa9576004546000906001600160a01b0316610e8d57846001600160a01b03166318160ddd6040518163ffffffff1660e01b8152600401602060405180830381865afa158015610e64573d6000803e3d6000fd5b505050506040513d601f19601f82011682018060405250810190610e8891906113a2565b610efd565b60048054604051631e1932fb60e01b81526001600160a01b0388811693820193909352911690631e1932fb90602401602060405180830381865afa158015610ed9573d6000803e3d6000fd5b505050506040513d601f19601f82011682018060405250810190610efd91906113a2565b905060008115610f2f57610f2c82610f1d670de0b6b3a7640000866113d1565b610f2791906113f0565b6111f8565b90505b6040518060400160405280828760000151610f4a9190611412565b6001600160e01b03168152602001610f61426111e1565b63ffffffff9081169091526001600160a01b0388166000908152600660209081526040909120835191840151909216600160e01b026001600160e01b03909116179055935050505b5092915050565b80516001600160a01b038481166000908152600760209081526040808320938716835292905290812080546001600160e01b038085166001600160e01b031983161790925591929116806110095750670de0b6b3a76400005b6000611015828461143d565b6004549091506000906001600160a01b031661109a576040516370a0823160e01b81526001600160a01b0388811660048301528916906370a0823190602401602060405180830381865afa158015611071573d6000803e3d6000fd5b505050506040513d601f19601f8201168201806040525081019061109591906113a2565b611112565b60048054604051631a50ef2f60e01b81526001600160a01b038b8116938201939093528983166024820152911690631a50ef2f90604401602060405180830381865afa1580156110ee573d6000803e3d6000fd5b505050506040513d601f19601f8201168201806040525081019061111291906113a2565b90506000670de0b6b3a76400006111326001600160e01b038516846113d1565b61113c91906113f0565b6001600160a01b03891660009081526005602052604081205491925090611164908390611465565b6001600160a01b03808b16600081815260056020526040908190208490555192935091908c16907f35a61f3c719e8f59f636c336e563ba74f667fadafcc80d709231ca8bb59eecce906111cc9086908b909182526001600160e01b0316602082015260400190565b60405180910390a39998505050505050505050565b600064010000000082106111f457600080fd5b5090565b6000600160e01b82106111f457600080fd5b6001600160a01b038116811461069057600080fd5b6000806040838503121561123257600080fd5b823561123d8161120a565b9150602083013561124d8161120a565b809150509250929050565b60006020828403121561126a57600080fd5b81356112758161120a565b9392505050565b60008060006060848603121561129157600080fd5b833561129c8161120a565b925060208401356112ac8161120a565b915060408401356112bc8161120a565b809150509250925092565b6020808252825182820181905260009190848201906040850190845b818110156113085783516001600160a01b0316835292840192918401916001016112e3565b50909695505050505050565b60006020828403121561132657600080fd5b5035919050565b6020808252600c908201526b15539055551213d49256915160a21b604082015260600190565b6001600160a01b0393841681529190921660208201526001600160e01b0319909116604082015260600190565b60006020828403121561139257600080fd5b8151801515811461127557600080fd5b6000602082840312156113b457600080fd5b5051919050565b634e487b7160e01b600052601160045260246000fd5b60008160001904831182151516156113eb576113eb6113bb565b500290565b60008261140d57634e487b7160e01b600052601260045260246000fd5b500490565b60006001600160e01b03828116848216808303821115611434576114346113bb565b01949350505050565b60006001600160e01b038381169083168181101561145d5761145d6113bb565b039392505050565b60008219821115611478576114786113bb565b50019056fea2646970667358221220691832e0283d33f9c588eeec29960e93a1d0b8ad41e8abf7fa66a894d58c1cc964736f6c634300080a0033",
    "linkReferences": {}
  }
}