{
  "abi": [
    {
      "inputs": [
        {
          "internalType": "contract Comptroller",
          "name": "comptroller",
          "type": "address"
        }
      ],
      "name": "getMarketRewardsInfo",
      "outputs": [
        {
          "components": [
            {
              "internalType": "uint256",
              "name": "underlyingPrice",
              "type": "uint256"
            },
            {
              "internalType": "contract CToken",
              "name": "market",
              "type": "address"
            },
            {
              "components": [
                {
                  "internalType": "uint256",
                  "name": "rewardSpeedPerSecondPerToken",
                  "type": "uint256"
                },
                {
                  "internalType": "uint256",
                  "name": "rewardTokenPrice",
                  "type": "uint256"
                },
                {
                  "internalType": "uint256",
                  "name": "formattedAPR",
                  "type": "uint256"
                },
                {
                  "internalType": "address",
                  "name": "flywheel",
                  "type": "address"
                },
                {
                  "internalType": "address",
                  "name": "rewardToken",
                  "type": "address"
                }
              ],
              "internalType": "struct FuseFlywheelLensRouter.RewardsInfo[]",
              "name": "rewardsInfo",
              "type": "tuple[]"
            }
          ],
          "internalType": "struct FuseFlywheelLensRouter.MarketRewardsInfo[]",
          "name": "",
          "type": "tuple[]"
        }
      ],
      "stateMutability": "nonpayable",
      "type": "function"
    },
    {
      "inputs": [
        {
          "internalType": "address",
          "name": "user",
          "type": "address"
        },
        {
          "internalType": "contract CToken[]",
          "name": "markets",
          "type": "address[]"
        },
        {
          "internalType": "contract FuseFlywheelCore[]",
          "name": "flywheels",
          "type": "address[]"
        },
        {
          "internalType": "bool[]",
          "name": "accrue",
          "type": "bool[]"
        }
      ],
      "name": "getUnclaimedRewardsByMarkets",
      "outputs": [
        {
          "internalType": "uint256[]",
          "name": "rewards",
          "type": "uint256[]"
        }
      ],
      "stateMutability": "nonpayable",
      "type": "function"
    },
    {
      "inputs": [
        {
          "internalType": "address",
          "name": "user",
          "type": "address"
        },
        {
          "internalType": "contract CToken",
          "name": "market",
          "type": "address"
        },
        {
          "internalType": "contract FuseFlywheelCore[]",
          "name": "flywheels",
          "type": "address[]"
        },
        {
          "internalType": "bool[]",
          "name": "accrue",
          "type": "bool[]"
        }
      ],
      "name": "getUnclaimedRewardsForMarket",
      "outputs": [
        {
          "internalType": "uint256[]",
          "name": "rewards",
          "type": "uint256[]"
        }
      ],
      "stateMutability": "nonpayable",
      "type": "function"
    }
  ],
  "bytecode": {
    "object": "0x608060405234801561001057600080fd5b506114c0806100206000396000f3fe608060405234801561001057600080fd5b50600436106100415760003560e01c80630bd96f4814610046578063193bd4481461006f578063c8a6da191461008f575b600080fd5b610059610054366004610ecd565b6100a2565b6040516100669190610f61565b60405180910390f35b61008261007d366004610fa5565b610360565b6040516100669190610fc9565b61005961009d3660046110a7565b610b6e565b606083806001600160401b038111156100bd576100bd611153565b6040519080825280602002602001820160405280156100e6578160200160208202803683370190505b50915060005b8181101561035457600085858381811061010857610108611169565b905060200201602081019061011d919061117f565b156101c65787878381811061013457610134611169565b90506020020160208101906101499190610fa5565b604051632e6f912b60e21b81526001600160a01b038b811660048301528c81166024830152919091169063b9be44ac906044016020604051808303816000875af115801561019b573d6000803e3d6000fd5b505050506040513d601f19601f820116820180604052508101906101bf91906111a1565b905061025c565b8787838181106101d8576101d8611169565b90506020020160208101906101ed9190610fa5565b604051630ff6b5a760e31b81526001600160a01b038c811660048301529190911690637fb5ad3890602401602060405180830381865afa158015610235573d6000803e3d6000fd5b505050506040513d601f19601f8201168201806040525081019061025991906111a1565b90505b8084838151811061026f5761026f611169565b60200260200101511015610283578061029e565b83828151811061029557610295611169565b60200260200101515b8483815181106102b0576102b0611169565b6020026020010181815250508787838181106102ce576102ce611169565b90506020020160208101906102e39190610fa5565b604051633bd73ee360e21b81526001600160a01b038c81166004830152919091169063ef5cfb8c90602401600060405180830381600087803b15801561032857600080fd5b505af115801561033c573d6000803e3d6000fd5b5050505050808061034c906111d0565b9150506100ec565b50509695505050505050565b60606000826001600160a01b031663b0772d0b6040518163ffffffff1660e01b8152600401600060405180830381865afa1580156103a2573d6000803e3d6000fd5b505050506040513d6000823e601f3d908101601f191682016040526103ca919081019061123e565b90506000836001600160a01b0316633605b51b6040518163ffffffff1660e01b8152600401600060405180830381865afa15801561040c573d6000803e3d6000fd5b505050506040513d6000823e601f3d908101601f1916820160405261043491908101906112dc565b9050600081516001600160401b0381111561045157610451611153565b60405190808252806020026020018201604052801561047a578160200160208202803683370190505b509050600082516001600160401b0381111561049857610498611153565b6040519080825280602002602001820160405280156104c1578160200160208202803683370190505b5090506000866001600160a01b0316637dc0d1d06040518163ffffffff1660e01b8152600401602060405180830381865afa158015610504573d6000803e3d6000fd5b505050506040513d601f19601f82011682018060405250810190610528919061136a565b9050600085516001600160401b0381111561054557610545611153565b60405190808252806020026020018201604052801561059257816020015b604080516060808201835260008083526020830152918101919091528152602001906001900390816105635790505b50905060005b8651811015610b6257600086516001600160401b038111156105bc576105bc611153565b60405190808252806020026020018201604052801561063157816020015b61061e6040518060a0016040528060008152602001600081526020016000815260200160006001600160a01b0316815260200160006001600160a01b031681525090565b8152602001906001900390816105da5790505b509050600088838151811061064857610648611169565b602090810291909101015160405163fc57d4df60e01b81526001600160a01b03808316600483015291925060009187169063fc57d4df90602401602060405180830381865afa15801561069f573d6000803e3d6000fd5b505050506040513d601f19601f820116820180604052508101906106c391906111a1565b905060005b8951811015610b0a5760008a82815181106106e5576106e5611169565b60200260200101519050856000141561080a576000816001600160a01b031663f7c618c16040518163ffffffff1660e01b8152600401602060405180830381865afa158015610738573d6000803e3d6000fd5b505050506040513d601f19601f8201168201806040525081019061075c919061136a565b9050808b848151811061077157610771611169565b6001600160a01b0392831660209182029290920101526040516315d5220f60e31b81528282166004820152908a169063aea9107890602401602060405180830381865afa1580156107c6573d6000803e3d6000fd5b505050506040513d601f19601f820116820180604052508101906107ea91906111a1565b8a84815181106107fc576107fc611169565b602002602001018181525050505b60405163dde684a560e01b81526001600160a01b038581166004830152600091829182919085169063dde684a5906024016040805180830381865afa158015610857573d6000803e3d6000fd5b505050506040513d601f19601f8201168201806040525081019061087b9190611387565b604051632e6f912b60e21b81526001600160a01b038a81166004830152600060248301529294509092509085169063b9be44ac906044016020604051808303816000875af11580156108d1573d6000803e3d6000fd5b505050506040513d601f19601f820116820180604052508101906108f591906111a1565b5060405163dde684a560e01b81526001600160a01b038881166004830152600091829187169063dde684a5906024016040805180830381865afa158015610940573d6000803e3d6000fd5b505050506040513d601f19601f820116820180604052508101906109649190611387565b915091508263ffffffff168163ffffffff1611156109ac5761098683826113d6565b63ffffffff1661099685846113fb565b6109a09190611431565b6001600160e01b031694505b505050506040518060a001604052808281526020018b85815181106109d3576109d3611169565b60200260200101518152602001866001600160a01b031663bd6d894d6040518163ffffffff1660e01b81526004016020604051808303816000875af1158015610a20573d6000803e3d6000fd5b505050506040513d601f19601f82011682018060405250810190610a4491906111a1565b868d8781518110610a5757610a57611169565b602002602001015185610a6a9190611457565b610a78906301e187e0611457565b610a829190611476565b610a9490670de0b6b3a7640000611457565b610a9e9190611476565b8152602001836001600160a01b031681526020018c8581518110610ac457610ac4611169565b60200260200101516001600160a01b0316815250868481518110610aea57610aea611169565b602002602001018190525050508080610b02906111d0565b9150506106c8565b506040518060600160405280828152602001836001600160a01b0316815260200184815250858581518110610b4157610b41611169565b60200260200101819052505050508080610b5a906111d0565b915050610598565b50979650505050505050565b6060836001600160401b03811115610b8857610b88611153565b604051908082528060200260200182016040528015610bb1578160200160208202803683370190505b50905060005b84811015610b625760005b87811015610dd2576000898983818110610bde57610bde611169565b9050602002016020810190610bf39190610fa5565b90506000868685818110610c0957610c09611169565b9050602002016020810190610c1e919061117f565b15610cc757888885818110610c3557610c35611169565b9050602002016020810190610c4a9190610fa5565b604051632e6f912b60e21b81526001600160a01b0384811660048301528e81166024830152919091169063b9be44ac906044016020604051808303816000875af1158015610c9c573d6000803e3d6000fd5b505050506040513d601f19601f82011682018060405250810190610cc091906111a1565b9050610d5d565b888885818110610cd957610cd9611169565b9050602002016020810190610cee9190610fa5565b604051630ff6b5a760e31b81526001600160a01b038e811660048301529190911690637fb5ad3890602401602060405180830381865afa158015610d36573d6000803e3d6000fd5b505050506040513d601f19601f82011682018060405250810190610d5a91906111a1565b90505b80858581518110610d7057610d70611169565b60200260200101511015610d845780610d9f565b848481518110610d9657610d96611169565b60200260200101515b858581518110610db157610db1611169565b60200260200101818152505050508080610dca906111d0565b915050610bc2565b50858582818110610de557610de5611169565b9050602002016020810190610dfa9190610fa5565b604051633bd73ee360e21b81526001600160a01b038b81166004830152919091169063ef5cfb8c90602401600060405180830381600087803b158015610e3f57600080fd5b505af1158015610e53573d6000803e3d6000fd5b505050508080610e62906111d0565b915050610bb7565b6001600160a01b0381168114610e7f57600080fd5b50565b60008083601f840112610e9457600080fd5b5081356001600160401b03811115610eab57600080fd5b6020830191508360208260051b8501011115610ec657600080fd5b9250929050565b60008060008060008060808789031215610ee657600080fd5b8635610ef181610e6a565b95506020870135610f0181610e6a565b945060408701356001600160401b0380821115610f1d57600080fd5b610f298a838b01610e82565b90965094506060890135915080821115610f4257600080fd5b50610f4f89828a01610e82565b979a9699509497509295939492505050565b6020808252825182820181905260009190848201906040850190845b81811015610f9957835183529284019291840191600101610f7d565b50909695505050505050565b600060208284031215610fb757600080fd5b8135610fc281610e6a565b9392505050565b60006020808301818452808551808352604092508286019150828160051b87010184880160005b8381101561109957888303603f19018552815180518452878101516001600160a01b03908116898601529087015160608886018190528151818701819052918a019290916080918288019160005b81811015611081578651805185528e8101518f8601528d8101518e86015286810151841687860152850151831685850152958d019560a09093019260010161103e565b505050978a0197955050509187019150600101610ff0565b509098975050505050505050565b60008060008060008060006080888a0312156110c257600080fd5b87356110cd81610e6a565b965060208801356001600160401b03808211156110e957600080fd5b6110f58b838c01610e82565b909850965060408a013591508082111561110e57600080fd5b61111a8b838c01610e82565b909650945060608a013591508082111561113357600080fd5b506111408a828b01610e82565b989b979a50959850939692959293505050565b634e487b7160e01b600052604160045260246000fd5b634e487b7160e01b600052603260045260246000fd5b60006020828403121561119157600080fd5b81358015158114610fc257600080fd5b6000602082840312156111b357600080fd5b5051919050565b634e487b7160e01b600052601160045260246000fd5b60006000198214156111e4576111e46111ba565b5060010190565b604051601f8201601f191681016001600160401b038111828210171561121357611213611153565b604052919050565b60006001600160401b0382111561123457611234611153565b5060051b60200190565b6000602080838503121561125157600080fd5b82516001600160401b0381111561126757600080fd5b8301601f8101851361127857600080fd5b805161128b6112868261121b565b6111eb565b81815260059190911b820183019083810190878311156112aa57600080fd5b928401925b828410156112d15783516112c281610e6a565b825292840192908401906112af565b979650505050505050565b600060208083850312156112ef57600080fd5b82516001600160401b0381111561130557600080fd5b8301601f8101851361131657600080fd5b80516113246112868261121b565b81815260059190911b8201830190838101908783111561134357600080fd5b928401925b828410156112d157835161135b81610e6a565b82529284019290840190611348565b60006020828403121561137c57600080fd5b8151610fc281610e6a565b6000806040838503121561139a57600080fd5b82516001600160e01b03811681146113b157600080fd5b602084015190925063ffffffff811681146113cb57600080fd5b809150509250929050565b600063ffffffff838116908316818110156113f3576113f36111ba565b039392505050565b60006001600160e01b03838116908316818110156113f3576113f36111ba565b634e487b7160e01b600052601260045260246000fd5b60006001600160e01b038381168061144b5761144b61141b565b92169190910492915050565b6000816000190483118215151615611471576114716111ba565b500290565b6000826114855761148561141b565b50049056fea2646970667358221220adced5e2d89837dfdcd099f95bbd2d3b931a6485eabd5845380a4e24e596092664736f6c634300080a0033",
    "linkReferences": {}
  }
}