{
  "abi": [
    {
      "anonymous": false,
      "inputs": [
        {
          "indexed": false,
          "internalType": "address",
          "name": "instance",
          "type": "address"
        }
      ],
      "name": "Deployed",
      "type": "event"
    },
    {
      "inputs": [
        {
          "internalType": "address",
          "name": "master",
          "type": "address"
        },
        {
          "internalType": "bytes",
          "name": "initializer",
          "type": "bytes"
        }
      ],
      "name": "clone",
      "outputs": [
        {
          "internalType": "address",
          "name": "instance",
          "type": "address"
        }
      ],
      "stateMutability": "nonpayable",
      "type": "function"
    }
  ],
  "bytecode": {
    "object": "0x608060405234801561001057600080fd5b506105b4806100206000396000f3fe608060405234801561001057600080fd5b506004361061002b5760003560e01c80630fbe133c14610030575b600080fd5b6100f36004803603604081101561004657600080fd5b73ffffffffffffffffffffffffffffffffffffffff823516919081019060408101602082013564010000000081111561007e57600080fd5b82018360208201111561009057600080fd5b803590602001918460018302840111640100000000831117156100b257600080fd5b91908080601f01602080910402602001604051908101604052809392919081815260200183838082843760009201919091525092955061011c945050505050565b6040805173ffffffffffffffffffffffffffffffffffffffff9092168252519081900360200190f35b6000610127836101d9565b9050610189826040518060400160405280601b81526020017f4661696c656420746f20696e697469616c697a6520636c6f6e652e00000000008152508373ffffffffffffffffffffffffffffffffffffffff166102c09092919063ffffffff16565b506040805173ffffffffffffffffffffffffffffffffffffffff8316815290517ff40fcec21964ffb566044d083b4073f29f7f7929110ea19e1b3ebe375d89055e9181900360200190a192915050565b60006040517f3d602d80600a3d3981f3363d3d373d3d3d363d7300000000000000000000000081528260601b60148201527f5af43d82803e903d91602b57fd5bf3000000000000000000000000000000000060288201526037816000f091505073ffffffffffffffffffffffffffffffffffffffff81166102bb57604080517f08c379a000000000000000000000000000000000000000000000000000000000815260206004820152601660248201527f455243313136373a20637265617465206661696c656400000000000000000000604482015290519081900360640190fd5b919050565b60606102cf84846000856102d9565b90505b9392505050565b606082471015610334576040517f08c379a00000000000000000000000000000000000000000000000000000000081526004018080602001828103825260268152602001806105596026913960400191505060405180910390fd5b61033d85610494565b6103a857604080517f08c379a000000000000000000000000000000000000000000000000000000000815260206004820152601d60248201527f416464726573733a2063616c6c20746f206e6f6e2d636f6e7472616374000000604482015290519081900360640190fd5b600060608673ffffffffffffffffffffffffffffffffffffffff1685876040518082805190602001908083835b6020831061041257805182527fffffffffffffffffffffffffffffffffffffffffffffffffffffffffffffffe090920191602091820191016103d5565b6001836020036101000a03801982511681845116808217855250505050505090500191505060006040518083038185875af1925050503d8060008114610474576040519150601f19603f3d011682016040523d82523d6000602084013e610479565b606091505b509150915061048982828661049a565b979650505050505050565b3b151590565b606083156104a95750816102d2565b8251156104b95782518084602001fd5b816040517f08c379a00000000000000000000000000000000000000000000000000000000081526004018080602001828103825283818151815260200191508051906020019080838360005b8381101561051d578181015183820152602001610505565b50505050905090810190601f16801561054a5780820380516001836020036101000a031916815260200191505b509250505060405180910390fdfe416464726573733a20696e73756666696369656e742062616c616e636520666f722063616c6ca2646970667358221220c1c25f74ef96ac8b0caaae191f424b033bbfef00681a13a1877a7e5919f7593864736f6c634300060c0033",
    "linkReferences": {}
  }
}