{
  "abi": [
    {
      "anonymous": false,
      "inputs": [
        {
          "indexed": false,
          "internalType": "address",
          "name": "oldAdmin",
          "type": "address"
        },
        {
          "indexed": false,
          "internalType": "address",
          "name": "newAdmin",
          "type": "address"
        }
      ],
      "name": "NewAdmin",
      "type": "event"
    },
    {
      "anonymous": false,
      "inputs": [
        {
          "indexed": false,
          "internalType": "address",
          "name": "oldOracle",
          "type": "address"
        },
        {
          "indexed": false,
          "internalType": "address",
          "name": "newOracle",
          "type": "address"
        }
      ],
      "name": "NewDefaultOracle",
      "type": "event"
    },
    {
      "anonymous": false,
      "inputs": [
        {
          "indexed": false,
          "internalType": "address",
          "name": "underlying",
          "type": "address"
        },
        {
          "indexed": false,
          "internalType": "address",
          "name": "oldOracle",
          "type": "address"
        },
        {
          "indexed": false,
          "internalType": "address",
          "name": "newOracle",
          "type": "address"
        }
      ],
      "name": "NewOracle",
      "type": "event"
    },
    {
      "inputs": [
        {
          "internalType": "address[]",
          "name": "underlyings",
          "type": "address[]"
        },
        {
          "internalType": "contract PriceOracle[]",
          "name": "_oracles",
          "type": "address[]"
        }
      ],
      "name": "add",
      "outputs": [],
      "stateMutability": "nonpayable",
      "type": "function"
    },
    {
      "inputs": [],
      "name": "admin",
      "outputs": [
        {
          "internalType": "address",
          "name": "",
          "type": "address"
        }
      ],
      "stateMutability": "view",
      "type": "function"
    },
    {
      "inputs": [],
      "name": "canAdminOverwrite",
      "outputs": [
        {
          "internalType": "bool",
          "name": "",
          "type": "bool"
        }
      ],
      "stateMutability": "view",
      "type": "function"
    },
    {
      "inputs": [
        {
          "internalType": "address",
          "name": "newAdmin",
          "type": "address"
        }
      ],
      "name": "changeAdmin",
      "outputs": [],
      "stateMutability": "nonpayable",
      "type": "function"
    },
    {
      "inputs": [],
      "name": "defaultOracle",
      "outputs": [
        {
          "internalType": "contract PriceOracle",
          "name": "",
          "type": "address"
        }
      ],
      "stateMutability": "view",
      "type": "function"
    },
    {
      "inputs": [
        {
          "internalType": "contract CToken",
          "name": "cToken",
          "type": "address"
        }
      ],
      "name": "getUnderlyingPrice",
      "outputs": [
        {
          "internalType": "uint256",
          "name": "",
          "type": "uint256"
        }
      ],
      "stateMutability": "view",
      "type": "function"
    },
    {
      "inputs": [
        {
          "internalType": "address[]",
          "name": "underlyings",
          "type": "address[]"
        },
        {
          "internalType": "contract PriceOracle[]",
          "name": "_oracles",
          "type": "address[]"
        },
        {
          "internalType": "contract PriceOracle",
          "name": "_defaultOracle",
          "type": "address"
        },
        {
          "internalType": "address",
          "name": "_admin",
          "type": "address"
        },
        {
          "internalType": "bool",
          "name": "_canAdminOverwrite",
          "type": "bool"
        }
      ],
      "name": "initialize",
      "outputs": [],
      "stateMutability": "nonpayable",
      "type": "function"
    },
    {
      "inputs": [
        {
          "internalType": "address",
          "name": "",
          "type": "address"
        }
      ],
      "name": "oracles",
      "outputs": [
        {
          "internalType": "contract PriceOracle",
          "name": "",
          "type": "address"
        }
      ],
      "stateMutability": "view",
      "type": "function"
    },
    {
      "inputs": [
        {
          "internalType": "address",
          "name": "underlying",
          "type": "address"
        }
      ],
      "name": "price",
      "outputs": [
        {
          "internalType": "uint256",
          "name": "",
          "type": "uint256"
        }
      ],
      "stateMutability": "view",
      "type": "function"
    },
    {
      "inputs": [
        {
          "internalType": "contract PriceOracle",
          "name": "newOracle",
          "type": "address"
        }
      ],
      "name": "setDefaultOracle",
      "outputs": [],
      "stateMutability": "nonpayable",
      "type": "function"
    }
  ],
  "bytecode": {
    "object": "0x608060405234801561001057600080fd5b50611154806100206000396000f3fe608060405234801561001057600080fd5b50600436106100be5760003560e01c8063addd509911610076578063c44014d21161005b578063c44014d2146103cd578063f851a44014610400578063fc57d4df14610408576100be565b8063addd509914610355578063aea9107814610388576100be565b806380dce169116100a757806380dce1691461022f5780638f283970146102605780639c9192c614610293576100be565b8063278aa146146100c3578063656b0fd114610213575b600080fd5b610211600480360360a08110156100d957600080fd5b8101906020810181356401000000008111156100f457600080fd5b82018360208201111561010657600080fd5b8035906020019184602083028401116401000000008311171561012857600080fd5b919080806020026020016040519081016040528093929190818152602001838360200280828437600092019190915250929594936020810193503591505064010000000081111561017857600080fd5b82018360208201111561018a57600080fd5b803590602001918460208302840111640100000000831117156101ac57600080fd5b9190808060200260200160405190810160405280939291908181526020018383602002808284376000920191909152509295505073ffffffffffffffffffffffffffffffffffffffff83358116945060208401351692604001351515915061043b9050565b005b61021b61071a565b604080519115158252519081900360200190f35b61023761073c565b6040805173ffffffffffffffffffffffffffffffffffffffff9092168252519081900360200190f35b6102116004803603602081101561027657600080fd5b503573ffffffffffffffffffffffffffffffffffffffff16610758565b610211600480360360408110156102a957600080fd5b8101906020810181356401000000008111156102c457600080fd5b8201836020820111156102d657600080fd5b803590602001918460208302840111640100000000831117156102f857600080fd5b91939092909160208101903564010000000081111561031657600080fd5b82018360208201111561032857600080fd5b8035906020019184602083028401116401000000008311171561034a57600080fd5b509092509050610866565b6102376004803603602081101561036b57600080fd5b503573ffffffffffffffffffffffffffffffffffffffff16610af3565b6103bb6004803603602081101561039e57600080fd5b503573ffffffffffffffffffffffffffffffffffffffff16610b1b565b60408051918252519081900360200190f35b610211600480360360208110156103e357600080fd5b503573ffffffffffffffffffffffffffffffffffffffff16610cce565b610237610ddc565b6103bb6004803603602081101561041e57600080fd5b503573ffffffffffffffffffffffffffffffffffffffff16610df8565b600054610100900460ff16806104545750610454610ff7565b80610462575060005460ff16155b6104b7576040517f08c379a000000000000000000000000000000000000000000000000000000000815260040180806020018281038252602e8152602001806110b8602e913960400191505060405180910390fd5b600054610100900460ff1615801561051d57600080547fffffffffffffffffffffffffffffffffffffffffffffffffffffffffffffff007fffffffffffffffffffffffffffffffffffffffffffffffffffffffffffff00ff909116610100171660011790555b8451865114610577576040517f08c379a00000000000000000000000000000000000000000000000000000000081526004018080602001828103825260258152602001806110936025913960400191505060405180910390fd5b60005b865181101561065157600087828151811061059157fe5b6020026020010151905060008783815181106105a957fe5b60209081029190910181015173ffffffffffffffffffffffffffffffffffffffff808516600081815260018552604080822080549486167fffffffffffffffffffffffff0000000000000000000000000000000000000000909516851790558051928352948201528084019190915291519092507f10e7c87bebf274db4de1b5f9fc731d6f83096e550bd871b681314578404d31269181900360600190a1505060010161057a565b506002805473ffffffffffffffffffffffffffffffffffffffff8087167fffffffffffffffffffffffff00000000000000000000000000000000000000009283161790925560038054740100000000000000000000000000000000000000008615027fffffffffffffffffffffff00ffffffffffffffffffffffffffffffffffffffff948816919093161792909216179055801561071257600080547fffffffffffffffffffffffffffffffffffffffffffffffffffffffffffff00ff1690555b505050505050565b60035474010000000000000000000000000000000000000000900460ff161590565b60025473ffffffffffffffffffffffffffffffffffffffff1681565b60035473ffffffffffffffffffffffffffffffffffffffff1633146107de57604080517f08c379a000000000000000000000000000000000000000000000000000000000815260206004820152601860248201527f53656e646572206973206e6f74207468652061646d696e2e0000000000000000604482015290519081900360640190fd5b6003805473ffffffffffffffffffffffffffffffffffffffff8381167fffffffffffffffffffffffff0000000000000000000000000000000000000000831681179093556040805191909216808252602082019390935281517ff9ffabca9c8276e99321725bcb43fb076a6c66a54b7f21c4e8146d8519b417dc929181900390910190a15050565b60035473ffffffffffffffffffffffffffffffffffffffff1633146108ec57604080517f08c379a000000000000000000000000000000000000000000000000000000000815260206004820152601860248201527f53656e646572206973206e6f74207468652061646d696e2e0000000000000000604482015290519081900360640190fd5b82158015906108fa57508281145b61094f576040517f08c379a000000000000000000000000000000000000000000000000000000000815260040180806020018281038252603881526020018061105b6038913960400191505060405180910390fd5b60005b83811015610aec57600085858381811061096857fe5b6020908102929092013573ffffffffffffffffffffffffffffffffffffffff90811660008181526001909452604090932054600354939450169174010000000000000000000000000000000000000000900460ff16159050610a315773ffffffffffffffffffffffffffffffffffffffff811615610a31576040517f08c379a000000000000000000000000000000000000000000000000000000000815260040180806020018281038252604c81526020018061100f604c913960600191505060405180910390fd5b6000858585818110610a3f57fe5b73ffffffffffffffffffffffffffffffffffffffff86811660008181526001602090815260409182902080547fffffffffffffffffffffffff00000000000000000000000000000000000000001695820297909701358416948517909655805191825291871694810194909452838101829052519093507f10e7c87bebf274db4de1b5f9fc731d6f83096e550bd871b681314578404d3126928190036060019150a1505050600101610952565b5050505050565b60016020526000908152604090205473ffffffffffffffffffffffffffffffffffffffff1681565b73ffffffffffffffffffffffffffffffffffffffff8082166000908152600160205260408120549091168015610be7578073ffffffffffffffffffffffffffffffffffffffff1663aea91078846040518263ffffffff1660e01b8152600401808273ffffffffffffffffffffffffffffffffffffffff16815260200191505060206040518083038186803b158015610bb257600080fd5b505afa158015610bc6573d6000803e3d6000fd5b505050506040513d6020811015610bdc57600080fd5b50519150610cc99050565b60025473ffffffffffffffffffffffffffffffffffffffff1615610c7857600254604080517faea9107800000000000000000000000000000000000000000000000000000000815273ffffffffffffffffffffffffffffffffffffffff86811660048301529151919092169163aea91078916024808301926020929190829003018186803b158015610bb257600080fd5b6040517f08c379a00000000000000000000000000000000000000000000000000000000081526004018080602001828103825260398152602001806110e66039913960400191505060405180910390fd5b919050565b60035473ffffffffffffffffffffffffffffffffffffffff163314610d5457604080517f08c379a000000000000000000000000000000000000000000000000000000000815260206004820152601860248201527f53656e646572206973206e6f74207468652061646d696e2e0000000000000000604482015290519081900360640190fd5b6002805473ffffffffffffffffffffffffffffffffffffffff8381167fffffffffffffffffffffffff0000000000000000000000000000000000000000831681179093556040805191909216808252602082019390935281517f0df2d61fdd201e9633368dca495e2c469e36c48039263448dd8a2a954c19ef1a929181900390910190a15050565b60035473ffffffffffffffffffffffffffffffffffffffff1681565b6000808273ffffffffffffffffffffffffffffffffffffffff16636f307dc36040518163ffffffff1660e01b815260040160206040518083038186803b158015610e4157600080fd5b505afa158015610e55573d6000803e3d6000fd5b505050506040513d6020811015610e6b57600080fd5b5051905073ffffffffffffffffffffffffffffffffffffffff8116610e9b57670de0b6b3a7640000915050610cc9565b73ffffffffffffffffffffffffffffffffffffffff808216600090815260016020526040902054168015610f66578073ffffffffffffffffffffffffffffffffffffffff1663fc57d4df856040518263ffffffff1660e01b8152600401808273ffffffffffffffffffffffffffffffffffffffff16815260200191505060206040518083038186803b158015610f3057600080fd5b505afa158015610f44573d6000803e3d6000fd5b505050506040513d6020811015610f5a57600080fd5b50519250610cc9915050565b60025473ffffffffffffffffffffffffffffffffffffffff1615610c7857600254604080517ffc57d4df00000000000000000000000000000000000000000000000000000000815273ffffffffffffffffffffffffffffffffffffffff87811660048301529151919092169163fc57d4df916024808301926020929190829003018186803b158015610f3057600080fd5b600061100230611008565b15905090565b3b15159056fe41646d696e2063616e6e6f74206f7665727772697465206578697374696e672061737369676e6d656e7473206f66206f7261636c657320746f20756e6465726c79696e6720746f6b656e732e4c656e67746873206f6620626f746820617272617973206d75737420626520657175616c20616e642067726561746572207468616e20302e4c656e67746873206f6620626f746820617272617973206d75737420626520657175616c2e496e697469616c697a61626c653a20636f6e747261637420697320616c726561647920696e697469616c697a65645072696365206f7261636c65206e6f7420666f756e6420666f72207468697320756e6465726c79696e6720746f6b656e20616464726573732ea2646970667358221220cb1d8396452fa1e87c577bafc56c8795be3ba0b9b12daec9536775f9b01b72ca64736f6c634300060c0033",
    "linkReferences": {}
  }
}