{
  "abi": [
    {
      "inputs": [
        {
          "internalType": "address",
          "name": "_rootOracle",
          "type": "address"
        },
        {
          "internalType": "address",
          "name": "_uniswapV2Factory",
          "type": "address"
        }
      ],
      "stateMutability": "nonpayable",
      "type": "constructor"
    },
    {
      "inputs": [],
      "name": "WETH",
      "outputs": [
        {
          "internalType": "address",
          "name": "",
          "type": "address"
        }
      ],
      "stateMutability": "view",
      "type": "function"
    },
    {
      "inputs": [
        {
          "internalType": "contract CToken",
          "name": "cToken",
          "type": "address"
        }
      ],
      "name": "getUnderlyingPrice",
      "outputs": [
        {
          "internalType": "uint256",
          "name": "",
          "type": "uint256"
        }
      ],
      "stateMutability": "view",
      "type": "function"
    },
    {
      "inputs": [
        {
          "internalType": "address",
          "name": "underlying",
          "type": "address"
        }
      ],
      "name": "price",
      "outputs": [
        {
          "internalType": "uint256",
          "name": "",
          "type": "uint256"
        }
      ],
      "stateMutability": "view",
      "type": "function"
    },
    {
      "inputs": [],
      "name": "rootOracle",
      "outputs": [
        {
          "internalType": "contract UniswapTwapPriceOracleRoot",
          "name": "",
          "type": "address"
        }
      ],
      "stateMutability": "view",
      "type": "function"
    },
    {
      "inputs": [],
      "name": "uniswapV2Factory",
      "outputs": [
        {
          "internalType": "address",
          "name": "",
          "type": "address"
        }
      ],
      "stateMutability": "view",
      "type": "function"
    }
  ],
  "bytecode": {
    "object": "0x60c060405234801561001057600080fd5b506040516106773803806106778339818101604052604081101561003357600080fd5b5080516020909101516001600160601b0319606092831b8116608052911b1660a05260805160601c60a05160601c6105ef6100886000398061012752806103e352508061017652806103a652506105ef6000f3fe608060405234801561001057600080fd5b50600436106100675760003560e01c8063aea9107811610050578063aea91078146100a5578063e3cb23a5146100ea578063fc57d4df146100f257610067565b806359d0f7131461006c578063ad5c46481461009d575b600080fd5b610074610125565b6040805173ffffffffffffffffffffffffffffffffffffffff9092168252519081900360200190f35b610074610149565b6100d8600480360360208110156100bb57600080fd5b503573ffffffffffffffffffffffffffffffffffffffff16610161565b60408051918252519081900360200190f35b610074610174565b6100d86004803603602081101561010857600080fd5b503573ffffffffffffffffffffffffffffffffffffffff16610198565b7f000000000000000000000000000000000000000000000000000000000000000081565b73c02aaa39b223fe8d0a0e5c4f27ead9083c756cc281565b600061016c82610361565b90505b919050565b7f000000000000000000000000000000000000000000000000000000000000000081565b60008173ffffffffffffffffffffffffffffffffffffffff1663ac784ddc6040518163ffffffff1660e01b815260040160206040518083038186803b1580156101e057600080fd5b505afa1580156101f4573d6000803e3d6000fd5b505050506040513d602081101561020a57600080fd5b5051156102205750670de0b6b3a764000061016f565b60008273ffffffffffffffffffffffffffffffffffffffff16636f307dc36040518163ffffffff1660e01b815260040160206040518083038186803b15801561026857600080fd5b505afa15801561027c573d6000803e3d6000fd5b505050506040513d602081101561029257600080fd5b5051604080517f313ce567000000000000000000000000000000000000000000000000000000008152905191925060009173ffffffffffffffffffffffffffffffffffffffff84169163313ce567916004808301926020929190829003018186803b15801561030057600080fd5b505afa158015610314573d6000803e3d6000fd5b505050506040513d602081101561032a57600080fd5b505160ff16600a0a905061035981610353670de0b6b3a764000061034d86610361565b9061049b565b90610517565b949350505050565b600073ffffffffffffffffffffffffffffffffffffffff821673c02aaa39b223fe8d0a0e5c4f27ead9083c756cc214156103a45750670de0b6b3a764000061016f565b7f000000000000000000000000000000000000000000000000000000000000000073ffffffffffffffffffffffffffffffffffffffff16632b00490d837f00000000000000000000000000000000000000000000000000000000000000006040518363ffffffff1660e01b8152600401808373ffffffffffffffffffffffffffffffffffffffff1681526020018273ffffffffffffffffffffffffffffffffffffffff1681526020019250505060206040518083038186803b15801561046957600080fd5b505afa15801561047d573d6000803e3d6000fd5b505050506040513d602081101561049357600080fd5b505192915050565b6000826104aa57506000610511565b828202828482816104b757fe5b041461050e576040517f08c379a00000000000000000000000000000000000000000000000000000000081526004018080602001828103825260218152602001806105996021913960400191505060405180910390fd5b90505b92915050565b600080821161058757604080517f08c379a000000000000000000000000000000000000000000000000000000000815260206004820152601a60248201527f536166654d6174683a206469766973696f6e206279207a65726f000000000000604482015290519081900360640190fd5b81838161059057fe5b04939250505056fe536166654d6174683a206d756c7469706c69636174696f6e206f766572666c6f77a2646970667358221220ce3f2ca8435bbb2a7d8baca0f69c6bbf8167ba4bcbd4b4162f3bd2145561a7ed64736f6c634300060c0033",
    "linkReferences": {}
  }
}